{
	"Arrays.sol": {
		"Arrays": {
			"abi": [
				{
					"constant": false,
					"inputs": [],
					"name": "pushElement",
					"outputs": [],
					"payable": false,
					"stateMutability": "nonpayable",
					"type": "function"
				},
				{
					"constant": true,
					"inputs": [
						{
							"name": "i",
							"type": "uint256"
						}
					],
					"name": "getElement",
					"outputs": [
						{
							"name": "",
							"type": "bytes1"
						}
					],
					"payable": false,
					"stateMutability": "view",
					"type": "function"
				},
				{
					"constant": true,
					"inputs": [],
					"name": "len",
					"outputs": [
						{
							"name": "",
							"type": "uint256"
						}
					],
					"payable": false,
					"stateMutability": "view",
					"type": "function"
				},
				{
					"constant": false,
					"inputs": [],
					"name": "popElement",
					"outputs": [],
					"payable": false,
					"stateMutability": "nonpayable",
					"type": "function"
				},
				{
					"constant": true,
					"inputs": [],
					"name": "b1",
					"outputs": [
						{
							"name": "",
							"type": "bytes"
						}
					],
					"payable": false,
					"stateMutability": "view",
					"type": "function"
				}
			],
			"devdoc": {
				"methods": {}
			},
			"evm": {
				"assembly": "    /* \"Arrays.sol\":70:452  contract Arrays\r... */\n  mstore(0x40, 0x80)\n    /* \"Arrays.sol\":94:115  bytes public b1=\"abc\" */\n  0x40\n  dup1\n  mload\n  swap1\n  dup2\n  add\n  0x40\n  mstore\n  dup1\n  0x3\n  dup2\n  mstore\n  0x20\n  add\n  0x6162630000000000000000000000000000000000000000000000000000000000\n  dup2\n  mstore\n  pop\n  0x0\n  swap1\n  dup1\n  mload\n  swap1\n  0x20\n  add\n  swap1\n  tag_1\n  swap3\n  swap2\n  swap1\n  jump\t// in(tag_2)\ntag_1:\n  pop\n    /* \"Arrays.sol\":70:452  contract Arrays\r... */\n  callvalue\n    /* \"--CODEGEN--\":8:17   */\n  dup1\n    /* \"--CODEGEN--\":5:7   */\n  iszero\n  tag_3\n  jumpi\n    /* \"--CODEGEN--\":30:31   */\n  0x0\n    /* \"--CODEGEN--\":27:28   */\n  dup1\n    /* \"--CODEGEN--\":20:32   */\n  revert\n    /* \"--CODEGEN--\":5:7   */\ntag_3:\n    /* \"Arrays.sol\":70:452  contract Arrays\r... */\n  pop\n  jump(tag_4)\ntag_2:\n  dup3\n  dup1\n  sload\n  0x1\n  dup2\n  0x1\n  and\n  iszero\n  0x100\n  mul\n  sub\n  and\n  0x2\n  swap1\n  div\n  swap1\n  0x0\n  mstore\n  keccak256(0x0, 0x20)\n  swap1\n  0x1f\n  add\n  0x20\n  swap1\n  div\n  dup2\n  add\n  swap3\n  dup3\n  0x1f\n  lt\n  tag_6\n  jumpi\n  dup1\n  mload\n  not(0xff)\n  and\n  dup4\n  dup1\n  add\n  or\n  dup6\n  sstore\n  jump(tag_5)\ntag_6:\n  dup3\n  dup1\n  add\n  0x1\n  add\n  dup6\n  sstore\n  dup3\n  iszero\n  tag_5\n  jumpi\n  swap2\n  dup3\n  add\ntag_7:\n  dup3\n  dup2\n  gt\n  iszero\n  tag_8\n  jumpi\n  dup3\n  mload\n  dup3\n  sstore\n  swap2\n  0x20\n  add\n  swap2\n  swap1\n  0x1\n  add\n  swap1\n  jump(tag_7)\ntag_8:\ntag_5:\n  pop\n  swap1\n  pop\n  tag_9\n  swap2\n  swap1\n  jump\t// in(tag_10)\ntag_9:\n  pop\n  swap1\n  jump\t// out\ntag_10:\n  tag_11\n  swap2\n  swap1\ntag_12:\n  dup1\n  dup3\n  gt\n  iszero\n  tag_13\n  jumpi\n  0x0\n  dup2\n  0x0\n  swap1\n  sstore\n  pop\n  0x1\n  add\n  jump(tag_12)\ntag_13:\n  pop\n  swap1\n  jump\ntag_11:\n  swap1\n  jump\t// out\ntag_4:\n  dataSize(sub_0)\n  dup1\n  dataOffset(sub_0)\n  0x0\n  codecopy\n  0x0\n  return\nstop\n\nsub_0: assembly {\n        /* \"Arrays.sol\":70:452  contract Arrays\r... */\n      mstore(0x40, 0x80)\n      jumpi(tag_1, lt(calldatasize, 0x4))\n      calldataload(0x0)\n      0x100000000000000000000000000000000000000000000000000000000\n      swap1\n      div\n      0xffffffff\n      and\n      dup1\n      0x317d5f3\n      eq\n      tag_2\n      jumpi\n      dup1\n      0x3a7d22bc\n      eq\n      tag_3\n      jumpi\n      dup1\n      0x56d88e27\n      eq\n      tag_4\n      jumpi\n      dup1\n      0x9a6fcbdd\n      eq\n      tag_5\n      jumpi\n      dup1\n      0xee495002\n      eq\n      tag_6\n      jumpi\n    tag_1:\n      0x0\n      dup1\n      revert\n        /* \"Arrays.sol\":128:195  function pushElement() public \r... */\n    tag_2:\n      callvalue\n        /* \"--CODEGEN--\":8:17   */\n      dup1\n        /* \"--CODEGEN--\":5:7   */\n      iszero\n      tag_7\n      jumpi\n        /* \"--CODEGEN--\":30:31   */\n      0x0\n        /* \"--CODEGEN--\":27:28   */\n      dup1\n        /* \"--CODEGEN--\":20:32   */\n      revert\n        /* \"--CODEGEN--\":5:7   */\n    tag_7:\n        /* \"Arrays.sol\":128:195  function pushElement() public \r... */\n      pop\n      tag_8\n      jump(tag_9)\n    tag_8:\n      stop\n        /* \"Arrays.sol\":201:294  function getElement(uint i) public view returns (bytes1)\r... */\n    tag_3:\n      callvalue\n        /* \"--CODEGEN--\":8:17   */\n      dup1\n        /* \"--CODEGEN--\":5:7   */\n      iszero\n      tag_10\n      jumpi\n        /* \"--CODEGEN--\":30:31   */\n      0x0\n        /* \"--CODEGEN--\":27:28   */\n      dup1\n        /* \"--CODEGEN--\":20:32   */\n      revert\n        /* \"--CODEGEN--\":5:7   */\n    tag_10:\n        /* \"Arrays.sol\":201:294  function getElement(uint i) public view returns (bytes1)\r... */\n      pop\n      tag_11\n      0x4\n      dup1\n      calldatasize\n      sub\n        /* \"--CODEGEN--\":13:15   */\n      0x20\n        /* \"--CODEGEN--\":8:11   */\n      dup2\n        /* \"--CODEGEN--\":5:16   */\n      lt\n        /* \"--CODEGEN--\":2:4   */\n      iszero\n      tag_12\n      jumpi\n        /* \"--CODEGEN--\":29:30   */\n      0x0\n        /* \"--CODEGEN--\":26:27   */\n      dup1\n        /* \"--CODEGEN--\":19:31   */\n      revert\n        /* \"--CODEGEN--\":2:4   */\n    tag_12:\n        /* \"Arrays.sol\":201:294  function getElement(uint i) public view returns (bytes1)\r... */\n      dup2\n      add\n      swap1\n      dup1\n      dup1\n      calldataload\n      swap1\n      0x20\n      add\n      swap1\n      swap3\n      swap2\n      swap1\n      pop\n      pop\n      pop\n      jump(tag_13)\n    tag_11:\n      mload(0x40)\n      dup1\n      dup3\n      not(0xffffffffffffffffffffffffffffffffffffffffffffffffffffffffffffff)\n      and\n      not(0xffffffffffffffffffffffffffffffffffffffffffffffffffffffffffffff)\n      and\n      dup2\n      mstore\n      0x20\n      add\n      swap2\n      pop\n      pop\n      mload(0x40)\n      dup1\n      swap2\n      sub\n      swap1\n      return\n        /* \"Arrays.sol\":300:381  function len() public view returns(uint)\r... */\n    tag_4:\n      callvalue\n        /* \"--CODEGEN--\":8:17   */\n      dup1\n        /* \"--CODEGEN--\":5:7   */\n      iszero\n      tag_14\n      jumpi\n        /* \"--CODEGEN--\":30:31   */\n      0x0\n        /* \"--CODEGEN--\":27:28   */\n      dup1\n        /* \"--CODEGEN--\":20:32   */\n      revert\n        /* \"--CODEGEN--\":5:7   */\n    tag_14:\n        /* \"Arrays.sol\":300:381  function len() public view returns(uint)\r... */\n      pop\n      tag_15\n      jump(tag_16)\n    tag_15:\n      mload(0x40)\n      dup1\n      dup3\n      dup2\n      mstore\n      0x20\n      add\n      swap2\n      pop\n      pop\n      mload(0x40)\n      dup1\n      swap2\n      sub\n      swap1\n      return\n        /* \"Arrays.sol\":387:449  function popElement() public \r... */\n    tag_5:\n      callvalue\n        /* \"--CODEGEN--\":8:17   */\n      dup1\n        /* \"--CODEGEN--\":5:7   */\n      iszero\n      tag_17\n      jumpi\n        /* \"--CODEGEN--\":30:31   */\n      0x0\n        /* \"--CODEGEN--\":27:28   */\n      dup1\n        /* \"--CODEGEN--\":20:32   */\n      revert\n        /* \"--CODEGEN--\":5:7   */\n    tag_17:\n        /* \"Arrays.sol\":387:449  function popElement() public \r... */\n      pop\n      tag_18\n      jump(tag_19)\n    tag_18:\n      stop\n        /* \"Arrays.sol\":94:115  bytes public b1=\"abc\" */\n    tag_6:\n      callvalue\n        /* \"--CODEGEN--\":8:17   */\n      dup1\n        /* \"--CODEGEN--\":5:7   */\n      iszero\n      tag_20\n      jumpi\n        /* \"--CODEGEN--\":30:31   */\n      0x0\n        /* \"--CODEGEN--\":27:28   */\n      dup1\n        /* \"--CODEGEN--\":20:32   */\n      revert\n        /* \"--CODEGEN--\":5:7   */\n    tag_20:\n        /* \"Arrays.sol\":94:115  bytes public b1=\"abc\" */\n      pop\n      tag_21\n      jump(tag_22)\n    tag_21:\n      mload(0x40)\n      dup1\n      dup1\n      0x20\n      add\n      dup3\n      dup2\n      sub\n      dup3\n      mstore\n      dup4\n      dup2\n      dup2\n      mload\n      dup2\n      mstore\n      0x20\n      add\n      swap2\n      pop\n      dup1\n      mload\n      swap1\n      0x20\n      add\n      swap1\n      dup1\n      dup4\n      dup4\n        /* \"--CODEGEN--\":23:24   */\n      0x0\n        /* \"--CODEGEN--\":8:108   */\n    tag_23:\n        /* \"--CODEGEN--\":33:36   */\n      dup4\n        /* \"--CODEGEN--\":30:31   */\n      dup2\n        /* \"--CODEGEN--\":27:37   */\n      lt\n        /* \"--CODEGEN--\":8:108   */\n      iszero\n      tag_24\n      jumpi\n        /* \"--CODEGEN--\":99:100   */\n      dup1\n        /* \"--CODEGEN--\":94:97   */\n      dup3\n        /* \"--CODEGEN--\":90:101   */\n      add\n        /* \"--CODEGEN--\":84:102   */\n      mload\n        /* \"--CODEGEN--\":80:81   */\n      dup2\n        /* \"--CODEGEN--\":75:78   */\n      dup5\n        /* \"--CODEGEN--\":71:82   */\n      add\n        /* \"--CODEGEN--\":64:103   */\n      mstore\n        /* \"--CODEGEN--\":52:54   */\n      0x20\n        /* \"--CODEGEN--\":49:50   */\n      dup2\n        /* \"--CODEGEN--\":45:55   */\n      add\n        /* \"--CODEGEN--\":40:55   */\n      swap1\n      pop\n        /* \"--CODEGEN--\":8:108   */\n      jump(tag_23)\n    tag_24:\n        /* \"--CODEGEN--\":12:26   */\n      pop\n        /* \"Arrays.sol\":94:115  bytes public b1=\"abc\" */\n      pop\n      pop\n      pop\n      swap1\n      pop\n      swap1\n      dup2\n      add\n      swap1\n      0x1f\n      and\n      dup1\n      iszero\n      tag_26\n      jumpi\n      dup1\n      dup3\n      sub\n      dup1\n      mload\n      0x1\n      dup4\n      0x20\n      sub\n      0x100\n      exp\n      sub\n      not\n      and\n      dup2\n      mstore\n      0x20\n      add\n      swap2\n      pop\n    tag_26:\n      pop\n      swap3\n      pop\n      pop\n      pop\n      mload(0x40)\n      dup1\n      swap2\n      sub\n      swap1\n      return\n        /* \"Arrays.sol\":128:195  function pushElement() public \r... */\n    tag_9:\n        /* \"Arrays.sol\":175:177  b1 */\n      0x0\n        /* \"Arrays.sol\":175:187  b1.push('d') */\n      dup1\n        /* \"--CODEGEN--\":23:26   */\n      dup1\n        /* \"--CODEGEN--\":17:27   */\n      sload\n        /* \"--CODEGEN--\":63:65   */\n      0x3f\n        /* \"--CODEGEN--\":57:61   */\n      dup2\n        /* \"--CODEGEN--\":53:66   */\n      and\n        /* \"--CODEGEN--\":207:221   */\n      dup1\n        /* \"--CODEGEN--\":230:232   */\n      0x3e\n        /* \"--CODEGEN--\":225:470   */\n      dup2\n      eq\n      tag_29\n      jumpi\n        /* \"--CODEGEN--\":513:514   */\n      0x2\n        /* \"--CODEGEN--\":507:511   */\n      dup4\n        /* \"--CODEGEN--\":503:515   */\n      add\n        /* \"--CODEGEN--\":498:501   */\n      dup5\n        /* \"--CODEGEN--\":491:516   */\n      sstore\n        /* \"--CODEGEN--\":583:584   */\n      0x1\n        /* \"--CODEGEN--\":577:581   */\n      dup4\n        /* \"--CODEGEN--\":573:585   */\n      and\n        /* \"--CODEGEN--\":566:586   */\n      iszero\n        /* \"--CODEGEN--\":563:565   */\n      iszero\n      tag_30\n      jumpi\n        /* \"--CODEGEN--\":597:611   */\n      dup2\n        /* \"--CODEGEN--\":589:611   */\n      swap3\n      pop\n        /* \"--CODEGEN--\":563:565   */\n    tag_30:\n        /* \"--CODEGEN--\":643:644   */\n      0x1\n        /* \"--CODEGEN--\":639:640   */\n      0x2\n        /* \"--CODEGEN--\":633:637   */\n      dup5\n        /* \"--CODEGEN--\":629:641   */\n      div\n        /* \"--CODEGEN--\":625:645   */\n      add\n        /* \"--CODEGEN--\":618:645   */\n      swap4\n      pop\n        /* \"--CODEGEN--\":200:650   */\n      jump(tag_28)\n        /* \"--CODEGEN--\":225:470   */\n    tag_29:\n        /* \"--CODEGEN--\":252:255   */\n      dup4\n        /* \"--CODEGEN--\":249:250   */\n      0x0\n        /* \"--CODEGEN--\":242:256   */\n      mstore\n        /* \"--CODEGEN--\":291:295   */\n      0x20\n        /* \"--CODEGEN--\":288:289   */\n      0x0\n        /* \"--CODEGEN--\":278:296   */\n      keccak256\n        /* \"--CODEGEN--\":333:337   */\n      0xff\n        /* \"--CODEGEN--\":329:338   */\n      not\n        /* \"--CODEGEN--\":323:327   */\n      dup5\n        /* \"--CODEGEN--\":319:339   */\n      and\n        /* \"--CODEGEN--\":308:317   */\n      dup2\n        /* \"--CODEGEN--\":301:340   */\n      sstore\n        /* \"--CODEGEN--\":406:408   */\n      0x41\n        /* \"--CODEGEN--\":401:404   */\n      dup6\n        /* \"--CODEGEN--\":394:409   */\n      sstore\n        /* \"--CODEGEN--\":463:465   */\n      0x20\n        /* \"--CODEGEN--\":456:465   */\n      swap5\n      pop\n        /* \"--CODEGEN--\":236:470   */\n      pop\n        /* \"--CODEGEN--\":200:650   */\n    tag_28:\n      pop\n        /* \"--CODEGEN--\":0:654   */\n      pop\n      pop\n        /* \"Arrays.sol\":175:187  b1.push('d') */\n      swap1\n      0x1\n      dup3\n      sub\n      dup2\n      sload\n      0x1\n      and\n      iszero\n      tag_31\n      jumpi\n      swap1\n      0x0\n      mstore\n      keccak256(0x0, 0x20)\n      swap1\n      0x20\n      swap2\n      dup3\n      dup3\n      div\n      add\n      swap2\n      swap1\n      mod\n    tag_31:\n      0x6400000000000000000000000000000000000000000000000000000000000000\n      swap1\n      swap2\n      swap1\n      swap2\n      0x1f\n      sub\n      0x100\n      exp\n      dup2\n      sload\n      dup2\n      0xff\n      mul\n      not\n      and\n      swap1\n      0x100000000000000000000000000000000000000000000000000000000000000\n      dup5\n      div\n      mul\n      or\n      swap1\n      sstore\n      pop\n      pop\n        /* \"Arrays.sol\":128:195  function pushElement() public \r... */\n      jump\t// out\n        /* \"Arrays.sol\":201:294  function getElement(uint i) public view returns (bytes1)\r... */\n    tag_13:\n        /* \"Arrays.sol\":250:256  bytes1 */\n      0x0\n        /* \"Arrays.sol\":281:283  b1 */\n      dup1\n        /* \"Arrays.sol\":284:285  i */\n      dup3\n        /* \"Arrays.sol\":281:286  b1[i] */\n      dup2\n      sload\n      0x1\n      dup2\n      0x1\n      and\n      iszero\n      0x100\n      mul\n      sub\n      and\n      0x2\n      swap1\n      div\n      dup2\n      lt\n      iszero\n      iszero\n      tag_33\n      jumpi\n      invalid\n    tag_33:\n      dup2\n      sload\n      0x1\n      and\n      iszero\n      tag_34\n      jumpi\n      swap1\n      0x0\n      mstore\n      keccak256(0x0, 0x20)\n      swap1\n      0x20\n      swap2\n      dup3\n      dup3\n      div\n      add\n      swap2\n      swap1\n      mod\n    tag_34:\n      swap1\n      sload\n      swap1\n      byte\n      0x100000000000000000000000000000000000000000000000000000000000000\n      mul\n        /* \"Arrays.sol\":274:286  return b1[i] */\n      swap1\n      pop\n        /* \"Arrays.sol\":201:294  function getElement(uint i) public view returns (bytes1)\r... */\n      swap2\n      swap1\n      pop\n      jump\t// out\n        /* \"Arrays.sol\":300:381  function len() public view returns(uint)\r... */\n    tag_16:\n        /* \"Arrays.sol\":335:339  uint */\n      0x0\n        /* \"Arrays.sol\":364:366  b1 */\n      dup1\n        /* \"Arrays.sol\":364:373  b1.length */\n      dup1\n      sload\n      0x1\n      dup2\n      0x1\n      and\n      iszero\n      0x100\n      mul\n      sub\n      and\n      0x2\n      swap1\n      div\n      swap1\n      pop\n        /* \"Arrays.sol\":357:373  return b1.length */\n      swap1\n      pop\n        /* \"Arrays.sol\":300:381  function len() public view returns(uint)\r... */\n      swap1\n      jump\t// out\n        /* \"Arrays.sol\":387:449  function popElement() public \r... */\n    tag_19:\n        /* \"Arrays.sol\":433:435  b1 */\n      0x0\n        /* \"--CODEGEN--\":29:32   */\n      dup1\n        /* \"--CODEGEN--\":23:33   */\n      sload\n        /* \"--CODEGEN--\":60:61   */\n      0x1\n        /* \"--CODEGEN--\":48:58   */\n      dup2\n        /* \"--CODEGEN--\":44:62   */\n      and\n        /* \"--CODEGEN--\":71:72   */\n      0x0\n        /* \"--CODEGEN--\":66:427   */\n      dup2\n      eq\n      tag_38\n      jumpi\n        /* \"--CODEGEN--\":436:437   */\n      0x1\n        /* \"--CODEGEN--\":431:1196   */\n      dup2\n      eq\n      tag_39\n      jumpi\n        /* \"--CODEGEN--\":37:1196   */\n      jump(tag_37)\n        /* \"--CODEGEN--\":66:427   */\n    tag_38:\n        /* \"--CODEGEN--\":141:145   */\n      0x1f\n        /* \"--CODEGEN--\":137:138   */\n      0x2\n        /* \"--CODEGEN--\":125:135   */\n      dup4\n        /* \"--CODEGEN--\":121:139   */\n      div\n        /* \"--CODEGEN--\":117:146   */\n      and\n        /* \"--CODEGEN--\":161:167   */\n      dup1\n        /* \"--CODEGEN--\":154:168   */\n      iszero\n        /* \"--CODEGEN--\":151:153   */\n      iszero\n      tag_40\n      jumpi\n        /* \"--CODEGEN--\":171:180   */\n      invalid\n        /* \"--CODEGEN--\":151:153   */\n    tag_40:\n        /* \"--CODEGEN--\":298:299   */\n      0x1\n        /* \"--CODEGEN--\":288:294   */\n      dup2\n        /* \"--CODEGEN--\":284:286   */\n      0x21\n        /* \"--CODEGEN--\":280:295   */\n      sub\n        /* \"--CODEGEN--\":273:278   */\n      0x100\n        /* \"--CODEGEN--\":269:296   */\n      exp\n        /* \"--CODEGEN--\":265:300   */\n      sub\n        /* \"--CODEGEN--\":327:328   */\n      0x1\n        /* \"--CODEGEN--\":319:325   */\n      dup3\n        /* \"--CODEGEN--\":315:329   */\n      sub\n        /* \"--CODEGEN--\":305:329   */\n      swap2\n      pop\n        /* \"--CODEGEN--\":391:392   */\n      0x2\n        /* \"--CODEGEN--\":383:389   */\n      dup3\n        /* \"--CODEGEN--\":379:393   */\n      mul\n        /* \"--CODEGEN--\":366:376   */\n      dup5\n        /* \"--CODEGEN--\":359:363   */\n      dup3\n        /* \"--CODEGEN--\":355:364   */\n      not\n        /* \"--CODEGEN--\":351:377   */\n      and\n        /* \"--CODEGEN--\":348:394   */\n      or\n        /* \"--CODEGEN--\":334:394   */\n      swap4\n      pop\n        /* \"--CODEGEN--\":411:421   */\n      dup4\n        /* \"--CODEGEN--\":406:409   */\n      dup6\n        /* \"--CODEGEN--\":399:422   */\n      sstore\n        /* \"--CODEGEN--\":73:427   */\n      pop\n      pop\n        /* \"--CODEGEN--\":66:427   */\n      jump(tag_37)\n        /* \"--CODEGEN--\":431:1196   */\n    tag_39:\n        /* \"--CODEGEN--\":477:480   */\n      dup3\n        /* \"--CODEGEN--\":474:475   */\n      0x0\n        /* \"--CODEGEN--\":467:481   */\n      mstore\n        /* \"--CODEGEN--\":516:517   */\n      0x2\n        /* \"--CODEGEN--\":504:514   */\n      dup3\n        /* \"--CODEGEN--\":500:518   */\n      div\n        /* \"--CODEGEN--\":548:552   */\n      0x20\n        /* \"--CODEGEN--\":545:546   */\n      0x0\n        /* \"--CODEGEN--\":535:553   */\n      keccak256\n        /* \"--CODEGEN--\":565:571   */\n      dup2\n        /* \"--CODEGEN--\":581:583   */\n      0x20\n        /* \"--CODEGEN--\":576:710   */\n      dup2\n      eq\n      tag_42\n      jumpi\n        /* \"--CODEGEN--\":780:784   */\n      0x1f\n        /* \"--CODEGEN--\":776:777   */\n      0x1\n        /* \"--CODEGEN--\":768:774   */\n      dup5\n        /* \"--CODEGEN--\":764:778   */\n      sub\n        /* \"--CODEGEN--\":760:785   */\n      and\n        /* \"--CODEGEN--\":829:831   */\n      0x20\n        /* \"--CODEGEN--\":825:826   */\n      0x1\n        /* \"--CODEGEN--\":817:823   */\n      dup6\n        /* \"--CODEGEN--\":813:827   */\n      sub\n        /* \"--CODEGEN--\":809:832   */\n      div\n        /* \"--CODEGEN--\":803:807   */\n      dup4\n        /* \"--CODEGEN--\":799:833   */\n      add\n        /* \"--CODEGEN--\":791:833   */\n      swap3\n      pop\n        /* \"--CODEGEN--\":857:861   */\n      dup3\n        /* \"--CODEGEN--\":851:862   */\n      sload\n        /* \"--CODEGEN--\":1026:1027   */\n      0x1\n        /* \"--CODEGEN--\":1004:1022   */\n      dup3\n        /* \"--CODEGEN--\":1000:1002   */\n      0x20\n        /* \"--CODEGEN--\":996:1023   */\n      sub\n        /* \"--CODEGEN--\":989:994   */\n      0x100\n        /* \"--CODEGEN--\":985:1024   */\n      exp\n        /* \"--CODEGEN--\":981:1028   */\n      sub\n        /* \"--CODEGEN--\":1057:1061   */\n      dup2\n        /* \"--CODEGEN--\":1050:1054   */\n      dup2\n        /* \"--CODEGEN--\":1046:1055   */\n      not\n        /* \"--CODEGEN--\":1042:1062   */\n      and\n        /* \"--CODEGEN--\":1034:1062   */\n      swap2\n      pop\n        /* \"--CODEGEN--\":1081:1085   */\n      dup2\n        /* \"--CODEGEN--\":1075:1079   */\n      dup6\n        /* \"--CODEGEN--\":1068:1086   */\n      sstore\n        /* \"--CODEGEN--\":1154:1155   */\n      0x2\n        /* \"--CODEGEN--\":1142:1152   */\n      dup9\n        /* \"--CODEGEN--\":1138:1156   */\n      sub\n        /* \"--CODEGEN--\":1124:1156   */\n      swap8\n      pop\n        /* \"--CODEGEN--\":1174:1184   */\n      dup8\n        /* \"--CODEGEN--\":1169:1172   */\n      dup10\n        /* \"--CODEGEN--\":1162:1185   */\n      sstore\n        /* \"--CODEGEN--\":727:1191   */\n      pop\n      pop\n      pop\n        /* \"--CODEGEN--\":558:1191   */\n      jump(tag_41)\n        /* \"--CODEGEN--\":576:710   */\n    tag_42:\n        /* \"--CODEGEN--\":613:617   */\n      dup2\n        /* \"--CODEGEN--\":607:618   */\n      sload\n        /* \"--CODEGEN--\":637:638   */\n      0x0\n        /* \"--CODEGEN--\":631:635   */\n      dup4\n        /* \"--CODEGEN--\":624:639   */\n      sstore\n        /* \"--CODEGEN--\":667:671   */\n      0xff\n        /* \"--CODEGEN--\":663:672   */\n      not\n        /* \"--CODEGEN--\":657:661   */\n      dup2\n        /* \"--CODEGEN--\":653:673   */\n      and\n        /* \"--CODEGEN--\":645:673   */\n      swap1\n      pop\n        /* \"--CODEGEN--\":700:702   */\n      0x3e\n        /* \"--CODEGEN--\":694:698   */\n      dup2\n        /* \"--CODEGEN--\":691:703   */\n      or\n        /* \"--CODEGEN--\":686:689   */\n      dup8\n        /* \"--CODEGEN--\":679:704   */\n      sstore\n        /* \"--CODEGEN--\":588:710   */\n      pop\n        /* \"--CODEGEN--\":558:1191   */\n    tag_41:\n      pop\n        /* \"--CODEGEN--\":438:1196   */\n      pop\n      pop\n        /* \"--CODEGEN--\":37:1196   */\n    tag_37:\n      pop\n        /* \"--CODEGEN--\":0:1200   */\n      pop\n        /* \"Arrays.sol\":433:441  b1.pop() */\n      pop\n        /* \"Arrays.sol\":387:449  function popElement() public \r... */\n      jump\t// out\n        /* \"Arrays.sol\":94:115  bytes public b1=\"abc\" */\n    tag_22:\n      0x0\n      dup1\n      sload\n      0x1\n      dup2\n      0x1\n      and\n      iszero\n      0x100\n      mul\n      sub\n      and\n      0x2\n      swap1\n      div\n      dup1\n      0x1f\n      add\n      0x20\n      dup1\n      swap2\n      div\n      mul\n      0x20\n      add\n      mload(0x40)\n      swap1\n      dup2\n      add\n      0x40\n      mstore\n      dup1\n      swap3\n      swap2\n      swap1\n      dup2\n      dup2\n      mstore\n      0x20\n      add\n      dup3\n      dup1\n      sload\n      0x1\n      dup2\n      0x1\n      and\n      iszero\n      0x100\n      mul\n      sub\n      and\n      0x2\n      swap1\n      div\n      dup1\n      iszero\n      tag_43\n      jumpi\n      dup1\n      0x1f\n      lt\n      tag_44\n      jumpi\n      0x100\n      dup1\n      dup4\n      sload\n      div\n      mul\n      dup4\n      mstore\n      swap2\n      0x20\n      add\n      swap2\n      jump(tag_43)\n    tag_44:\n      dup3\n      add\n      swap2\n      swap1\n      0x0\n      mstore\n      keccak256(0x0, 0x20)\n      swap1\n    tag_45:\n      dup2\n      sload\n      dup2\n      mstore\n      swap1\n      0x1\n      add\n      swap1\n      0x20\n      add\n      dup1\n      dup4\n      gt\n      tag_45\n      jumpi\n      dup3\n      swap1\n      sub\n      0x1f\n      and\n      dup3\n      add\n      swap2\n    tag_43:\n      pop\n      pop\n      pop\n      pop\n      pop\n      dup2\n      jump\t// out\n\n    auxdata: 0xa165627a7a723058202abd9b245ca08768bd06a48431c439c13914566b95ee270c27ae2a395e2d8a800029\n}\n",
				"bytecode": {
					"linkReferences": {},
					"object": "60806040526040805190810160405280600381526020017f61626300000000000000000000000000000000000000000000000000000000008152506000908051906020019061004f929190610062565b5034801561005c57600080fd5b50610107565b828054600181600116156101000203166002900490600052602060002090601f016020900481019282601f106100a357805160ff19168380011785556100d1565b828001600101855582156100d1579182015b828111156100d05782518255916020019190600101906100b5565b5b5090506100de91906100e2565b5090565b61010491905b808211156101005760008160009055506001016100e8565b5090565b90565b6104d7806101166000396000f3fe60806040526004361061006d576000357c0100000000000000000000000000000000000000000000000000000000900463ffffffff1680630317d5f3146100725780633a7d22bc1461008957806356d88e271461011c5780639a6fcbdd14610147578063ee4950021461015e575b600080fd5b34801561007e57600080fd5b506100876101ee565b005b34801561009557600080fd5b506100c2600480360360208110156100ac57600080fd5b81019080803590602001909291905050506102c3565b60405180827effffffffffffffffffffffffffffffffffffffffffffffffffffffffffffff19167effffffffffffffffffffffffffffffffffffffffffffffffffffffffffffff1916815260200191505060405180910390f35b34801561012857600080fd5b50610131610330565b6040518082815260200191505060405180910390f35b34801561015357600080fd5b5061015c61034d565b005b34801561016a57600080fd5b5061017361040d565b6040518080602001828103825283818151815260200191508051906020019080838360005b838110156101b3578082015181840152602081019050610198565b50505050905090810190601f1680156101e05780820380516001836020036101000a031916815260200191505b509250505060405180910390f35b6000808054603f811680603e811461022257600283018455600183161515610214578192505b60016002840401935061023c565b83600052602060002060ff19841681556041855560209450505b50505090600182038154600116156102635790600052602060002090602091828204019190065b7f640000000000000000000000000000000000000000000000000000000000000090919091601f036101000a81548160ff021916907f01000000000000000000000000000000000000000000000000000000000000008404021790555050565b6000808281546001816001161561010002031660029004811015156102e457fe5b8154600116156103035790600052602060002090602091828204019190065b9054901a7f0100000000000000000000000000000000000000000000000000000000000000029050919050565b600080805460018160011615610100020316600290049050905090565b60008054600181166000811461036a57600181146103a057610408565b601f600283041680151561037a57fe5b6001816021036101000a0360018203915060028202848219161793508385555050610408565b8260005260028204602060002081602081146103ef57601f6001840316602060018503048301925082546001826020036101000a03818119169150818555600288039750878955505050610404565b81546000835560ff1981169050603e81178755505b5050505b505050565b60008054600181600116156101000203166002900480601f0160208091040260200160405190810160405280929190818152602001828054600181600116156101000203166002900480156104a35780601f10610478576101008083540402835291602001916104a3565b820191906000526020600020905b81548152906001019060200180831161048657829003601f168201915b50505050508156fea165627a7a723058202abd9b245ca08768bd06a48431c439c13914566b95ee270c27ae2a395e2d8a800029",
					"opcodes": "PUSH1 0x80 PUSH1 0x40 MSTORE PUSH1 0x40 DUP1 MLOAD SWAP1 DUP2 ADD PUSH1 0x40 MSTORE DUP1 PUSH1 0x3 DUP2 MSTORE PUSH1 0x20 ADD PUSH32 0x6162630000000000000000000000000000000000000000000000000000000000 DUP2 MSTORE POP PUSH1 0x0 SWAP1 DUP1 MLOAD SWAP1 PUSH1 0x20 ADD SWAP1 PUSH2 0x4F SWAP3 SWAP2 SWAP1 PUSH2 0x62 JUMP JUMPDEST POP CALLVALUE DUP1 ISZERO PUSH2 0x5C JUMPI PUSH1 0x0 DUP1 REVERT JUMPDEST POP PUSH2 0x107 JUMP JUMPDEST DUP3 DUP1 SLOAD PUSH1 0x1 DUP2 PUSH1 0x1 AND ISZERO PUSH2 0x100 MUL SUB AND PUSH1 0x2 SWAP1 DIV SWAP1 PUSH1 0x0 MSTORE PUSH1 0x20 PUSH1 0x0 KECCAK256 SWAP1 PUSH1 0x1F ADD PUSH1 0x20 SWAP1 DIV DUP2 ADD SWAP3 DUP3 PUSH1 0x1F LT PUSH2 0xA3 JUMPI DUP1 MLOAD PUSH1 0xFF NOT AND DUP4 DUP1 ADD OR DUP6 SSTORE PUSH2 0xD1 JUMP JUMPDEST DUP3 DUP1 ADD PUSH1 0x1 ADD DUP6 SSTORE DUP3 ISZERO PUSH2 0xD1 JUMPI SWAP2 DUP3 ADD JUMPDEST DUP3 DUP2 GT ISZERO PUSH2 0xD0 JUMPI DUP3 MLOAD DUP3 SSTORE SWAP2 PUSH1 0x20 ADD SWAP2 SWAP1 PUSH1 0x1 ADD SWAP1 PUSH2 0xB5 JUMP JUMPDEST JUMPDEST POP SWAP1 POP PUSH2 0xDE SWAP2 SWAP1 PUSH2 0xE2 JUMP JUMPDEST POP SWAP1 JUMP JUMPDEST PUSH2 0x104 SWAP2 SWAP1 JUMPDEST DUP1 DUP3 GT ISZERO PUSH2 0x100 JUMPI PUSH1 0x0 DUP2 PUSH1 0x0 SWAP1 SSTORE POP PUSH1 0x1 ADD PUSH2 0xE8 JUMP JUMPDEST POP SWAP1 JUMP JUMPDEST SWAP1 JUMP JUMPDEST PUSH2 0x4D7 DUP1 PUSH2 0x116 PUSH1 0x0 CODECOPY PUSH1 0x0 RETURN INVALID PUSH1 0x80 PUSH1 0x40 MSTORE PUSH1 0x4 CALLDATASIZE LT PUSH2 0x6D JUMPI PUSH1 0x0 CALLDATALOAD PUSH29 0x100000000000000000000000000000000000000000000000000000000 SWAP1 DIV PUSH4 0xFFFFFFFF AND DUP1 PUSH4 0x317D5F3 EQ PUSH2 0x72 JUMPI DUP1 PUSH4 0x3A7D22BC EQ PUSH2 0x89 JUMPI DUP1 PUSH4 0x56D88E27 EQ PUSH2 0x11C JUMPI DUP1 PUSH4 0x9A6FCBDD EQ PUSH2 0x147 JUMPI DUP1 PUSH4 0xEE495002 EQ PUSH2 0x15E JUMPI JUMPDEST PUSH1 0x0 DUP1 REVERT JUMPDEST CALLVALUE DUP1 ISZERO PUSH2 0x7E JUMPI PUSH1 0x0 DUP1 REVERT JUMPDEST POP PUSH2 0x87 PUSH2 0x1EE JUMP JUMPDEST STOP JUMPDEST CALLVALUE DUP1 ISZERO PUSH2 0x95 JUMPI PUSH1 0x0 DUP1 REVERT JUMPDEST POP PUSH2 0xC2 PUSH1 0x4 DUP1 CALLDATASIZE SUB PUSH1 0x20 DUP2 LT ISZERO PUSH2 0xAC JUMPI PUSH1 0x0 DUP1 REVERT JUMPDEST DUP2 ADD SWAP1 DUP1 DUP1 CALLDATALOAD SWAP1 PUSH1 0x20 ADD SWAP1 SWAP3 SWAP2 SWAP1 POP POP POP PUSH2 0x2C3 JUMP JUMPDEST PUSH1 0x40 MLOAD DUP1 DUP3 PUSH31 0xFFFFFFFFFFFFFFFFFFFFFFFFFFFFFFFFFFFFFFFFFFFFFFFFFFFFFFFFFFFFFF NOT AND PUSH31 0xFFFFFFFFFFFFFFFFFFFFFFFFFFFFFFFFFFFFFFFFFFFFFFFFFFFFFFFFFFFFFF NOT AND DUP2 MSTORE PUSH1 0x20 ADD SWAP2 POP POP PUSH1 0x40 MLOAD DUP1 SWAP2 SUB SWAP1 RETURN JUMPDEST CALLVALUE DUP1 ISZERO PUSH2 0x128 JUMPI PUSH1 0x0 DUP1 REVERT JUMPDEST POP PUSH2 0x131 PUSH2 0x330 JUMP JUMPDEST PUSH1 0x40 MLOAD DUP1 DUP3 DUP2 MSTORE PUSH1 0x20 ADD SWAP2 POP POP PUSH1 0x40 MLOAD DUP1 SWAP2 SUB SWAP1 RETURN JUMPDEST CALLVALUE DUP1 ISZERO PUSH2 0x153 JUMPI PUSH1 0x0 DUP1 REVERT JUMPDEST POP PUSH2 0x15C PUSH2 0x34D JUMP JUMPDEST STOP JUMPDEST CALLVALUE DUP1 ISZERO PUSH2 0x16A JUMPI PUSH1 0x0 DUP1 REVERT JUMPDEST POP PUSH2 0x173 PUSH2 0x40D JUMP JUMPDEST PUSH1 0x40 MLOAD DUP1 DUP1 PUSH1 0x20 ADD DUP3 DUP2 SUB DUP3 MSTORE DUP4 DUP2 DUP2 MLOAD DUP2 MSTORE PUSH1 0x20 ADD SWAP2 POP DUP1 MLOAD SWAP1 PUSH1 0x20 ADD SWAP1 DUP1 DUP4 DUP4 PUSH1 0x0 JUMPDEST DUP4 DUP2 LT ISZERO PUSH2 0x1B3 JUMPI DUP1 DUP3 ADD MLOAD DUP2 DUP5 ADD MSTORE PUSH1 0x20 DUP2 ADD SWAP1 POP PUSH2 0x198 JUMP JUMPDEST POP POP POP POP SWAP1 POP SWAP1 DUP2 ADD SWAP1 PUSH1 0x1F AND DUP1 ISZERO PUSH2 0x1E0 JUMPI DUP1 DUP3 SUB DUP1 MLOAD PUSH1 0x1 DUP4 PUSH1 0x20 SUB PUSH2 0x100 EXP SUB NOT AND DUP2 MSTORE PUSH1 0x20 ADD SWAP2 POP JUMPDEST POP SWAP3 POP POP POP PUSH1 0x40 MLOAD DUP1 SWAP2 SUB SWAP1 RETURN JUMPDEST PUSH1 0x0 DUP1 DUP1 SLOAD PUSH1 0x3F DUP2 AND DUP1 PUSH1 0x3E DUP2 EQ PUSH2 0x222 JUMPI PUSH1 0x2 DUP4 ADD DUP5 SSTORE PUSH1 0x1 DUP4 AND ISZERO ISZERO PUSH2 0x214 JUMPI DUP2 SWAP3 POP JUMPDEST PUSH1 0x1 PUSH1 0x2 DUP5 DIV ADD SWAP4 POP PUSH2 0x23C JUMP JUMPDEST DUP4 PUSH1 0x0 MSTORE PUSH1 0x20 PUSH1 0x0 KECCAK256 PUSH1 0xFF NOT DUP5 AND DUP2 SSTORE PUSH1 0x41 DUP6 SSTORE PUSH1 0x20 SWAP5 POP POP JUMPDEST POP POP POP SWAP1 PUSH1 0x1 DUP3 SUB DUP2 SLOAD PUSH1 0x1 AND ISZERO PUSH2 0x263 JUMPI SWAP1 PUSH1 0x0 MSTORE PUSH1 0x20 PUSH1 0x0 KECCAK256 SWAP1 PUSH1 0x20 SWAP2 DUP3 DUP3 DIV ADD SWAP2 SWAP1 MOD JUMPDEST PUSH32 0x6400000000000000000000000000000000000000000000000000000000000000 SWAP1 SWAP2 SWAP1 SWAP2 PUSH1 0x1F SUB PUSH2 0x100 EXP DUP2 SLOAD DUP2 PUSH1 0xFF MUL NOT AND SWAP1 PUSH32 0x100000000000000000000000000000000000000000000000000000000000000 DUP5 DIV MUL OR SWAP1 SSTORE POP POP JUMP JUMPDEST PUSH1 0x0 DUP1 DUP3 DUP2 SLOAD PUSH1 0x1 DUP2 PUSH1 0x1 AND ISZERO PUSH2 0x100 MUL SUB AND PUSH1 0x2 SWAP1 DIV DUP2 LT ISZERO ISZERO PUSH2 0x2E4 JUMPI INVALID JUMPDEST DUP2 SLOAD PUSH1 0x1 AND ISZERO PUSH2 0x303 JUMPI SWAP1 PUSH1 0x0 MSTORE PUSH1 0x20 PUSH1 0x0 KECCAK256 SWAP1 PUSH1 0x20 SWAP2 DUP3 DUP3 DIV ADD SWAP2 SWAP1 MOD JUMPDEST SWAP1 SLOAD SWAP1 BYTE PUSH32 0x100000000000000000000000000000000000000000000000000000000000000 MUL SWAP1 POP SWAP2 SWAP1 POP JUMP JUMPDEST PUSH1 0x0 DUP1 DUP1 SLOAD PUSH1 0x1 DUP2 PUSH1 0x1 AND ISZERO PUSH2 0x100 MUL SUB AND PUSH1 0x2 SWAP1 DIV SWAP1 POP SWAP1 POP SWAP1 JUMP JUMPDEST PUSH1 0x0 DUP1 SLOAD PUSH1 0x1 DUP2 AND PUSH1 0x0 DUP2 EQ PUSH2 0x36A JUMPI PUSH1 0x1 DUP2 EQ PUSH2 0x3A0 JUMPI PUSH2 0x408 JUMP JUMPDEST PUSH1 0x1F PUSH1 0x2 DUP4 DIV AND DUP1 ISZERO ISZERO PUSH2 0x37A JUMPI INVALID JUMPDEST PUSH1 0x1 DUP2 PUSH1 0x21 SUB PUSH2 0x100 EXP SUB PUSH1 0x1 DUP3 SUB SWAP2 POP PUSH1 0x2 DUP3 MUL DUP5 DUP3 NOT AND OR SWAP4 POP DUP4 DUP6 SSTORE POP POP PUSH2 0x408 JUMP JUMPDEST DUP3 PUSH1 0x0 MSTORE PUSH1 0x2 DUP3 DIV PUSH1 0x20 PUSH1 0x0 KECCAK256 DUP2 PUSH1 0x20 DUP2 EQ PUSH2 0x3EF JUMPI PUSH1 0x1F PUSH1 0x1 DUP5 SUB AND PUSH1 0x20 PUSH1 0x1 DUP6 SUB DIV DUP4 ADD SWAP3 POP DUP3 SLOAD PUSH1 0x1 DUP3 PUSH1 0x20 SUB PUSH2 0x100 EXP SUB DUP2 DUP2 NOT AND SWAP2 POP DUP2 DUP6 SSTORE PUSH1 0x2 DUP9 SUB SWAP8 POP DUP8 DUP10 SSTORE POP POP POP PUSH2 0x404 JUMP JUMPDEST DUP2 SLOAD PUSH1 0x0 DUP4 SSTORE PUSH1 0xFF NOT DUP2 AND SWAP1 POP PUSH1 0x3E DUP2 OR DUP8 SSTORE POP JUMPDEST POP POP POP JUMPDEST POP POP POP JUMP JUMPDEST PUSH1 0x0 DUP1 SLOAD PUSH1 0x1 DUP2 PUSH1 0x1 AND ISZERO PUSH2 0x100 MUL SUB AND PUSH1 0x2 SWAP1 DIV DUP1 PUSH1 0x1F ADD PUSH1 0x20 DUP1 SWAP2 DIV MUL PUSH1 0x20 ADD PUSH1 0x40 MLOAD SWAP1 DUP2 ADD PUSH1 0x40 MSTORE DUP1 SWAP3 SWAP2 SWAP1 DUP2 DUP2 MSTORE PUSH1 0x20 ADD DUP3 DUP1 SLOAD PUSH1 0x1 DUP2 PUSH1 0x1 AND ISZERO PUSH2 0x100 MUL SUB AND PUSH1 0x2 SWAP1 DIV DUP1 ISZERO PUSH2 0x4A3 JUMPI DUP1 PUSH1 0x1F LT PUSH2 0x478 JUMPI PUSH2 0x100 DUP1 DUP4 SLOAD DIV MUL DUP4 MSTORE SWAP2 PUSH1 0x20 ADD SWAP2 PUSH2 0x4A3 JUMP JUMPDEST DUP3 ADD SWAP2 SWAP1 PUSH1 0x0 MSTORE PUSH1 0x20 PUSH1 0x0 KECCAK256 SWAP1 JUMPDEST DUP2 SLOAD DUP2 MSTORE SWAP1 PUSH1 0x1 ADD SWAP1 PUSH1 0x20 ADD DUP1 DUP4 GT PUSH2 0x486 JUMPI DUP3 SWAP1 SUB PUSH1 0x1F AND DUP3 ADD SWAP2 JUMPDEST POP POP POP POP POP DUP2 JUMP INVALID LOG1 PUSH6 0x627A7A723058 KECCAK256 0x2a 0xbd SWAP12 0x24 0x5c LOG0 DUP8 PUSH9 0xBD06A48431C439C139 EQ JUMP PUSH12 0x95EE270C27AE2A395E2D8A80 STOP 0x29 "
				},
				"gasEstimates": {
					"creation": {
						"codeDepositCost": "247800",
						"executionCost": "infinite",
						"totalCost": "infinite"
					},
					"external": {
						"b1()": "infinite",
						"getElement(uint256)": "1129",
						"len()": "494",
						"popElement()": "42494",
						"pushElement()": "61072"
					}
				},
				"methodIdentifiers": {
					"b1()": "ee495002",
					"getElement(uint256)": "3a7d22bc",
					"len()": "56d88e27",
					"popElement()": "9a6fcbdd",
					"pushElement()": "0317d5f3"
				}
			},
			"userdoc": {
				"methods": {}
			}
		}
	}
}