{
	"Demo.sol": {
		"Demo": {
			"abi": [
				{
					"inputs": [],
					"name": "demo",
					"outputs": [
						{
							"internalType": "uint256",
							"name": "block_no",
							"type": "uint256"
						},
						{
							"internalType": "uint256",
							"name": "timestamp",
							"type": "uint256"
						},
						{
							"internalType": "uint256",
							"name": "gaslimit",
							"type": "uint256"
						},
						{
							"internalType": "uint256",
							"name": "gasprice",
							"type": "uint256"
						},
						{
							"internalType": "address",
							"name": "msgSender",
							"type": "address"
						}
					],
					"stateMutability": "view",
					"type": "function"
				}
			],
			"devdoc": {
				"kind": "dev",
				"methods": {},
				"version": 1
			},
			"evm": {
				"assembly": "    /* \"Demo.sol\":70:305  contract Demo... */\n  mstore(0x40, 0x80)\n  callvalue\n  dup1\n  iszero\n  tag_1\n  jumpi\n  0x00\n  dup1\n  revert\ntag_1:\n  pop\n  dataSize(sub_0)\n  dup1\n  dataOffset(sub_0)\n  0x00\n  codecopy\n  0x00\n  return\nstop\n\nsub_0: assembly {\n        /* \"Demo.sol\":70:305  contract Demo... */\n      mstore(0x40, 0x80)\n      callvalue\n      dup1\n      iszero\n      tag_1\n      jumpi\n      0x00\n      dup1\n      revert\n    tag_1:\n      pop\n      jumpi(tag_2, lt(calldatasize, 0x04))\n      shr(0xe0, calldataload(0x00))\n      dup1\n      0x01725a0b\n      eq\n      tag_3\n      jumpi\n    tag_2:\n      0x00\n      dup1\n      revert\n        /* \"Demo.sol\":92:302  function demo() public view returns(uint block_no,uint timestamp,uint gaslimit,uint gasprice,address msgSender)... */\n    tag_3:\n      tag_4\n      tag_5\n      jump\t// in\n    tag_4:\n      mload(0x40)\n      tag_6\n      swap6\n      swap5\n      swap4\n      swap3\n      swap2\n      swap1\n      tag_7\n      jump\t// in\n    tag_6:\n      mload(0x40)\n      dup1\n      swap2\n      sub\n      swap1\n      return\n    tag_5:\n        /* \"Demo.sol\":128:141  uint block_no */\n      0x00\n        /* \"Demo.sol\":142:156  uint timestamp */\n      dup1\n        /* \"Demo.sol\":157:170  uint gaslimit */\n      0x00\n        /* \"Demo.sol\":171:184  uint gasprice */\n      dup1\n        /* \"Demo.sol\":185:202  address msgSender */\n      0x00\n        /* \"Demo.sol\":227:239  block.number */\n      number\n        /* \"Demo.sol\":240:255  block.timestamp */\n      timestamp\n        /* \"Demo.sol\":256:270  block.gaslimit */\n      gaslimit\n        /* \"Demo.sol\":271:282  tx.gasprice */\n      gasprice\n        /* \"Demo.sol\":283:293  msg.sender */\n      caller\n        /* \"Demo.sol\":220:294  return(block.number,block.timestamp,block.gaslimit,tx.gasprice,msg.sender) */\n      swap5\n      pop\n      swap5\n      pop\n      swap5\n      pop\n      swap5\n      pop\n      swap5\n      pop\n        /* \"Demo.sol\":92:302  function demo() public view returns(uint block_no,uint timestamp,uint gaslimit,uint gasprice,address msgSender)... */\n      swap1\n      swap2\n      swap3\n      swap4\n      swap5\n      jump\t// out\n        /* \"#utility.yul\":7:84   */\n    tag_9:\n        /* \"#utility.yul\":44:51   */\n      0x00\n        /* \"#utility.yul\":73:78   */\n      dup2\n        /* \"#utility.yul\":62:78   */\n      swap1\n      pop\n        /* \"#utility.yul\":7:84   */\n      swap2\n      swap1\n      pop\n      jump\t// out\n        /* \"#utility.yul\":90:208   */\n    tag_10:\n        /* \"#utility.yul\":177:201   */\n      tag_17\n        /* \"#utility.yul\":195:200   */\n      dup2\n        /* \"#utility.yul\":177:201   */\n      tag_9\n      jump\t// in\n    tag_17:\n        /* \"#utility.yul\":172:175   */\n      dup3\n        /* \"#utility.yul\":165:202   */\n      mstore\n        /* \"#utility.yul\":90:208   */\n      pop\n      pop\n      jump\t// out\n        /* \"#utility.yul\":214:340   */\n    tag_11:\n        /* \"#utility.yul\":251:258   */\n      0x00\n        /* \"#utility.yul\":291:333   */\n      0xffffffffffffffffffffffffffffffffffffffff\n        /* \"#utility.yul\":284:289   */\n      dup3\n        /* \"#utility.yul\":280:334   */\n      and\n        /* \"#utility.yul\":269:334   */\n      swap1\n      pop\n        /* \"#utility.yul\":214:340   */\n      swap2\n      swap1\n      pop\n      jump\t// out\n        /* \"#utility.yul\":346:442   */\n    tag_12:\n        /* \"#utility.yul\":383:390   */\n      0x00\n        /* \"#utility.yul\":412:436   */\n      tag_20\n        /* \"#utility.yul\":430:435   */\n      dup3\n        /* \"#utility.yul\":412:436   */\n      tag_11\n      jump\t// in\n    tag_20:\n        /* \"#utility.yul\":401:436   */\n      swap1\n      pop\n        /* \"#utility.yul\":346:442   */\n      swap2\n      swap1\n      pop\n      jump\t// out\n        /* \"#utility.yul\":448:566   */\n    tag_13:\n        /* \"#utility.yul\":535:559   */\n      tag_22\n        /* \"#utility.yul\":553:558   */\n      dup2\n        /* \"#utility.yul\":535:559   */\n      tag_12\n      jump\t// in\n    tag_22:\n        /* \"#utility.yul\":530:533   */\n      dup3\n        /* \"#utility.yul\":523:560   */\n      mstore\n        /* \"#utility.yul\":448:566   */\n      pop\n      pop\n      jump\t// out\n        /* \"#utility.yul\":572:1236   */\n    tag_7:\n        /* \"#utility.yul\":777:781   */\n      0x00\n        /* \"#utility.yul\":815:818   */\n      0xa0\n        /* \"#utility.yul\":804:813   */\n      dup3\n        /* \"#utility.yul\":800:819   */\n      add\n        /* \"#utility.yul\":792:819   */\n      swap1\n      pop\n        /* \"#utility.yul\":829:900   */\n      tag_24\n        /* \"#utility.yul\":897:898   */\n      0x00\n        /* \"#utility.yul\":886:895   */\n      dup4\n        /* \"#utility.yul\":882:899   */\n      add\n        /* \"#utility.yul\":873:879   */\n      dup9\n        /* \"#utility.yul\":829:900   */\n      tag_10\n      jump\t// in\n    tag_24:\n        /* \"#utility.yul\":910:982   */\n      tag_25\n        /* \"#utility.yul\":978:980   */\n      0x20\n        /* \"#utility.yul\":967:976   */\n      dup4\n        /* \"#utility.yul\":963:981   */\n      add\n        /* \"#utility.yul\":954:960   */\n      dup8\n        /* \"#utility.yul\":910:982   */\n      tag_10\n      jump\t// in\n    tag_25:\n        /* \"#utility.yul\":992:1064   */\n      tag_26\n        /* \"#utility.yul\":1060:1062   */\n      0x40\n        /* \"#utility.yul\":1049:1058   */\n      dup4\n        /* \"#utility.yul\":1045:1063   */\n      add\n        /* \"#utility.yul\":1036:1042   */\n      dup7\n        /* \"#utility.yul\":992:1064   */\n      tag_10\n      jump\t// in\n    tag_26:\n        /* \"#utility.yul\":1074:1146   */\n      tag_27\n        /* \"#utility.yul\":1142:1144   */\n      0x60\n        /* \"#utility.yul\":1131:1140   */\n      dup4\n        /* \"#utility.yul\":1127:1145   */\n      add\n        /* \"#utility.yul\":1118:1124   */\n      dup6\n        /* \"#utility.yul\":1074:1146   */\n      tag_10\n      jump\t// in\n    tag_27:\n        /* \"#utility.yul\":1156:1229   */\n      tag_28\n        /* \"#utility.yul\":1224:1227   */\n      0x80\n        /* \"#utility.yul\":1213:1222   */\n      dup4\n        /* \"#utility.yul\":1209:1228   */\n      add\n        /* \"#utility.yul\":1200:1206   */\n      dup5\n        /* \"#utility.yul\":1156:1229   */\n      tag_13\n      jump\t// in\n    tag_28:\n        /* \"#utility.yul\":572:1236   */\n      swap7\n      swap6\n      pop\n      pop\n      pop\n      pop\n      pop\n      pop\n      jump\t// out\n\n    auxdata: 0xa26469706673582212200d2143761ae2ea5af790b5cf52b11f50f6086cd3b3e0ca57d6717187988c338f64736f6c63430008120033\n}\n",
				"bytecode": {
					"linkReferences": {},
					"object": "608060405234801561001057600080fd5b50610153806100206000396000f3fe608060405234801561001057600080fd5b506004361061002b5760003560e01c806301725a0b14610030575b600080fd5b610038610052565b6040516100499594939291906100ca565b60405180910390f35b60008060008060004342453a33945094509450945094509091929394565b6000819050919050565b61008381610070565b82525050565b600073ffffffffffffffffffffffffffffffffffffffff82169050919050565b60006100b482610089565b9050919050565b6100c4816100a9565b82525050565b600060a0820190506100df600083018861007a565b6100ec602083018761007a565b6100f9604083018661007a565b610106606083018561007a565b61011360808301846100bb565b969550505050505056fea26469706673582212200d2143761ae2ea5af790b5cf52b11f50f6086cd3b3e0ca57d6717187988c338f64736f6c63430008120033",
					"opcodes": "PUSH1 0x80 PUSH1 0x40 MSTORE CALLVALUE DUP1 ISZERO PUSH2 0x10 JUMPI PUSH1 0x0 DUP1 REVERT JUMPDEST POP PUSH2 0x153 DUP1 PUSH2 0x20 PUSH1 0x0 CODECOPY PUSH1 0x0 RETURN INVALID PUSH1 0x80 PUSH1 0x40 MSTORE CALLVALUE DUP1 ISZERO PUSH2 0x10 JUMPI PUSH1 0x0 DUP1 REVERT JUMPDEST POP PUSH1 0x4 CALLDATASIZE LT PUSH2 0x2B JUMPI PUSH1 0x0 CALLDATALOAD PUSH1 0xE0 SHR DUP1 PUSH4 0x1725A0B EQ PUSH2 0x30 JUMPI JUMPDEST PUSH1 0x0 DUP1 REVERT JUMPDEST PUSH2 0x38 PUSH2 0x52 JUMP JUMPDEST PUSH1 0x40 MLOAD PUSH2 0x49 SWAP6 SWAP5 SWAP4 SWAP3 SWAP2 SWAP1 PUSH2 0xCA JUMP JUMPDEST PUSH1 0x40 MLOAD DUP1 SWAP2 SUB SWAP1 RETURN JUMPDEST PUSH1 0x0 DUP1 PUSH1 0x0 DUP1 PUSH1 0x0 NUMBER TIMESTAMP GASLIMIT GASPRICE CALLER SWAP5 POP SWAP5 POP SWAP5 POP SWAP5 POP SWAP5 POP SWAP1 SWAP2 SWAP3 SWAP4 SWAP5 JUMP JUMPDEST PUSH1 0x0 DUP2 SWAP1 POP SWAP2 SWAP1 POP JUMP JUMPDEST PUSH2 0x83 DUP2 PUSH2 0x70 JUMP JUMPDEST DUP3 MSTORE POP POP JUMP JUMPDEST PUSH1 0x0 PUSH20 0xFFFFFFFFFFFFFFFFFFFFFFFFFFFFFFFFFFFFFFFF DUP3 AND SWAP1 POP SWAP2 SWAP1 POP JUMP JUMPDEST PUSH1 0x0 PUSH2 0xB4 DUP3 PUSH2 0x89 JUMP JUMPDEST SWAP1 POP SWAP2 SWAP1 POP JUMP JUMPDEST PUSH2 0xC4 DUP2 PUSH2 0xA9 JUMP JUMPDEST DUP3 MSTORE POP POP JUMP JUMPDEST PUSH1 0x0 PUSH1 0xA0 DUP3 ADD SWAP1 POP PUSH2 0xDF PUSH1 0x0 DUP4 ADD DUP9 PUSH2 0x7A JUMP JUMPDEST PUSH2 0xEC PUSH1 0x20 DUP4 ADD DUP8 PUSH2 0x7A JUMP JUMPDEST PUSH2 0xF9 PUSH1 0x40 DUP4 ADD DUP7 PUSH2 0x7A JUMP JUMPDEST PUSH2 0x106 PUSH1 0x60 DUP4 ADD DUP6 PUSH2 0x7A JUMP JUMPDEST PUSH2 0x113 PUSH1 0x80 DUP4 ADD DUP5 PUSH2 0xBB JUMP JUMPDEST SWAP7 SWAP6 POP POP POP POP POP POP JUMP INVALID LOG2 PUSH5 0x6970667358 0x22 SLT KECCAK256 0xD 0x21 NUMBER PUSH23 0x1AE2EA5AF790B5CF52B11F50F6086CD3B3E0CA57D67171 DUP8 SWAP9 DUP13 CALLER DUP16 PUSH5 0x736F6C6343 STOP ADDMOD SLT STOP CALLER "
				},
				"gasEstimates": {
					"creation": {
						"codeDepositCost": "67800",
						"executionCost": "117",
						"totalCost": "67917"
					},
					"external": {
						"demo()": "infinite"
					}
				},
				"methodIdentifiers": {
					"demo()": "01725a0b"
				}
			},
			"storageLayout": {
				"storage": [],
				"types": null
			},
			"userdoc": {
				"kind": "user",
				"methods": {},
				"version": 1
			}
		}
	}
}