{
	"data": {
		"bytecode": {
			"linkReferences": {},
			"object": "6080604052608060405190810160405280600a60ff168152602001601460ff168152602001601e60ff168152602001602860ff168152506000906004610046929190610059565b5034801561005357600080fd5b506100c3565b826004810192821561008d579160200282015b8281111561008c578251829060ff1690559160200191906001019061006c565b5b50905061009a919061009e565b5090565b6100c091905b808211156100bc5760008160009055506001016100a4565b5090565b90565b610183806100d26000396000f3fe608060405260043610610057576000357c0100000000000000000000000000000000000000000000000000000000900463ffffffff1680631f7b6d321461005c5780635298f36d1461008757806371e5ee5f146100cc575b600080fd5b34801561006857600080fd5b5061007161011b565b6040518082815260200191505060405180910390f35b34801561009357600080fd5b506100ca600480360360408110156100aa57600080fd5b810190808035906020019092919080359060200190929190505050610124565b005b3480156100d857600080fd5b50610105600480360360208110156100ef57600080fd5b810190808035906020019092919050505061013d565b6040518082815260200191505060405180910390f35b60006004905090565b8060008360048110151561013457fe5b01819055505050565b60008160048110151561014c57fe5b01600091509050548156fea165627a7a723058209a6a9edab0e83f9f22b574cd70d758aa50e8549099a69594de4c08c5363293130029",
			"opcodes": "PUSH1 0x80 PUSH1 0x40 MSTORE PUSH1 0x80 PUSH1 0x40 MLOAD SWAP1 DUP2 ADD PUSH1 0x40 MSTORE DUP1 PUSH1 0xA PUSH1 0xFF AND DUP2 MSTORE PUSH1 0x20 ADD PUSH1 0x14 PUSH1 0xFF AND DUP2 MSTORE PUSH1 0x20 ADD PUSH1 0x1E PUSH1 0xFF AND DUP2 MSTORE PUSH1 0x20 ADD PUSH1 0x28 PUSH1 0xFF AND DUP2 MSTORE POP PUSH1 0x0 SWAP1 PUSH1 0x4 PUSH2 0x46 SWAP3 SWAP2 SWAP1 PUSH2 0x59 JUMP JUMPDEST POP CALLVALUE DUP1 ISZERO PUSH2 0x53 JUMPI PUSH1 0x0 DUP1 REVERT JUMPDEST POP PUSH2 0xC3 JUMP JUMPDEST DUP3 PUSH1 0x4 DUP2 ADD SWAP3 DUP3 ISZERO PUSH2 0x8D JUMPI SWAP2 PUSH1 0x20 MUL DUP3 ADD JUMPDEST DUP3 DUP2 GT ISZERO PUSH2 0x8C JUMPI DUP3 MLOAD DUP3 SWAP1 PUSH1 0xFF AND SWAP1 SSTORE SWAP2 PUSH1 0x20 ADD SWAP2 SWAP1 PUSH1 0x1 ADD SWAP1 PUSH2 0x6C JUMP JUMPDEST JUMPDEST POP SWAP1 POP PUSH2 0x9A SWAP2 SWAP1 PUSH2 0x9E JUMP JUMPDEST POP SWAP1 JUMP JUMPDEST PUSH2 0xC0 SWAP2 SWAP1 JUMPDEST DUP1 DUP3 GT ISZERO PUSH2 0xBC JUMPI PUSH1 0x0 DUP2 PUSH1 0x0 SWAP1 SSTORE POP PUSH1 0x1 ADD PUSH2 0xA4 JUMP JUMPDEST POP SWAP1 JUMP JUMPDEST SWAP1 JUMP JUMPDEST PUSH2 0x183 DUP1 PUSH2 0xD2 PUSH1 0x0 CODECOPY PUSH1 0x0 RETURN INVALID PUSH1 0x80 PUSH1 0x40 MSTORE PUSH1 0x4 CALLDATASIZE LT PUSH2 0x57 JUMPI PUSH1 0x0 CALLDATALOAD PUSH29 0x100000000000000000000000000000000000000000000000000000000 SWAP1 DIV PUSH4 0xFFFFFFFF AND DUP1 PUSH4 0x1F7B6D32 EQ PUSH2 0x5C JUMPI DUP1 PUSH4 0x5298F36D EQ PUSH2 0x87 JUMPI DUP1 PUSH4 0x71E5EE5F EQ PUSH2 0xCC JUMPI JUMPDEST PUSH1 0x0 DUP1 REVERT JUMPDEST CALLVALUE DUP1 ISZERO PUSH2 0x68 JUMPI PUSH1 0x0 DUP1 REVERT JUMPDEST POP PUSH2 0x71 PUSH2 0x11B JUMP JUMPDEST PUSH1 0x40 MLOAD DUP1 DUP3 DUP2 MSTORE PUSH1 0x20 ADD SWAP2 POP POP PUSH1 0x40 MLOAD DUP1 SWAP2 SUB SWAP1 RETURN JUMPDEST CALLVALUE DUP1 ISZERO PUSH2 0x93 JUMPI PUSH1 0x0 DUP1 REVERT JUMPDEST POP PUSH2 0xCA PUSH1 0x4 DUP1 CALLDATASIZE SUB PUSH1 0x40 DUP2 LT ISZERO PUSH2 0xAA JUMPI PUSH1 0x0 DUP1 REVERT JUMPDEST DUP2 ADD SWAP1 DUP1 DUP1 CALLDATALOAD SWAP1 PUSH1 0x20 ADD SWAP1 SWAP3 SWAP2 SWAP1 DUP1 CALLDATALOAD SWAP1 PUSH1 0x20 ADD SWAP1 SWAP3 SWAP2 SWAP1 POP POP POP PUSH2 0x124 JUMP JUMPDEST STOP JUMPDEST CALLVALUE DUP1 ISZERO PUSH2 0xD8 JUMPI PUSH1 0x0 DUP1 REVERT JUMPDEST POP PUSH2 0x105 PUSH1 0x4 DUP1 CALLDATASIZE SUB PUSH1 0x20 DUP2 LT ISZERO PUSH2 0xEF JUMPI PUSH1 0x0 DUP1 REVERT JUMPDEST DUP2 ADD SWAP1 DUP1 DUP1 CALLDATALOAD SWAP1 PUSH1 0x20 ADD SWAP1 SWAP3 SWAP2 SWAP1 POP POP POP PUSH2 0x13D JUMP JUMPDEST PUSH1 0x40 MLOAD DUP1 DUP3 DUP2 MSTORE PUSH1 0x20 ADD SWAP2 POP POP PUSH1 0x40 MLOAD DUP1 SWAP2 SUB SWAP1 RETURN JUMPDEST PUSH1 0x0 PUSH1 0x4 SWAP1 POP SWAP1 JUMP JUMPDEST DUP1 PUSH1 0x0 DUP4 PUSH1 0x4 DUP2 LT ISZERO ISZERO PUSH2 0x134 JUMPI INVALID JUMPDEST ADD DUP2 SWAP1 SSTORE POP POP POP JUMP JUMPDEST PUSH1 0x0 DUP2 PUSH1 0x4 DUP2 LT ISZERO ISZERO PUSH2 0x14C JUMPI INVALID JUMPDEST ADD PUSH1 0x0 SWAP2 POP SWAP1 POP SLOAD DUP2 JUMP INVALID LOG1 PUSH6 0x627A7A723058 KECCAK256 SWAP11 PUSH11 0x9EDAB0E83F9F22B574CD70 0xd7 PC 0xaa POP 0xe8 SLOAD SWAP1 SWAP10 0xa6 SWAP6 SWAP5 0xde 0x4c ADDMOD 0xc5 CALLDATASIZE ORIGIN SWAP4 SGT STOP 0x29 "
		},
		"gasEstimates": {
			"creation": {
				"codeDepositCost": "77400",
				"executionCost": "infinite",
				"totalCost": "infinite"
			},
			"external": {
				"arr(uint256)": "568",
				"length()": "202",
				"setter(uint256,uint256)": "20317"
			}
		},
		"methodIdentifiers": {
			"arr(uint256)": "71e5ee5f",
			"length()": "1f7b6d32",
			"setter(uint256,uint256)": "5298f36d"
		}
	},
	"abi": [
		{
			"constant": true,
			"inputs": [],
			"name": "length",
			"outputs": [
				{
					"name": "",
					"type": "uint256"
				}
			],
			"payable": false,
			"stateMutability": "view",
			"type": "function"
		},
		{
			"constant": false,
			"inputs": [
				{
					"name": "index",
					"type": "uint256"
				},
				{
					"name": "value",
					"type": "uint256"
				}
			],
			"name": "setter",
			"outputs": [],
			"payable": false,
			"stateMutability": "nonpayable",
			"type": "function"
		},
		{
			"constant": true,
			"inputs": [
				{
					"name": "",
					"type": "uint256"
				}
			],
			"name": "arr",
			"outputs": [
				{
					"name": "",
					"type": "uint256"
				}
			],
			"payable": false,
			"stateMutability": "view",
			"type": "function"
		}
	]
}