{
	"data": {
		"bytecode": {
			"linkReferences": {},
			"object": "60806040526040518060400160405280600481526020017f61626364000000000000000000000000000000000000000000000000000000008152506000908051906020019061004f929190610062565b5034801561005c57600080fd5b5061010d565b828054600181600116156101000203166002900490600052602060002090601f01602090048101928261009857600085556100df565b82601f106100b157805160ff19168380011785556100df565b828001600101855582156100df579182015b828111156100de5782518255916020019190600101906100c3565b5b5090506100ec91906100f0565b5090565b5b808211156101095760008160009055506001016100f1565b5090565b6104818061011c6000396000f3fe608060405234801561001057600080fd5b50600436106100575760003560e01c80630317d5f31461005c5780630add6ef2146100665780633a7d22bc146100e957806356d88e271461014c5780639a6fcbdd1461016a575b600080fd5b610064610174565b005b61006e610245565b6040518080602001828103825283818151815260200191508051906020019080838360005b838110156100ae578082015181840152602081019050610093565b50505050905090810190601f1680156100db5780820380516001836020036101000a031916815260200191505b509250505060405180910390f35b610115600480360360208110156100ff57600080fd5b81019080803590602001909291905050506102e3565b60405180827dffffffffffffffffffffffffffffffffffffffffffffffffffffffffffff1916815260200191505060405180910390f35b610154610370565b6040518082815260200191505060405180910390f35b61017261038d565b005b6000808054603f811680603e81146101a65760028301845560018316610198578192505b6001600284040193506101c0565b83600052602060002060ff19841681556041855560209450505b505050600190038154600116156101e65790600052602060002090602091828204019190065b7f650000000000000000000000000000000000000000000000000000000000000090919091601f036101000a81548160ff021916907f010000000000000000000000000000000000000000000000000000000000000084040217905550565b60008054600181600116156101000203166002900480601f0160208091040260200160405190810160405280929190818152602001828054600181600116156101000203166002900480156102db5780601f106102b0576101008083540402835291602001916102db565b820191906000526020600020905b8154815290600101906020018083116102be57829003601f168201915b505050505081565b6000808281546001816001161561010002031660029004811061030257fe5b8154600116156103215790600052602060002090602091828204019190065b9054901a7f0100000000000000000000000000000000000000000000000000000000000000027effffffffffffffffffffffffffffffffffffffffffffffffffffffffffffff19169050919050565b600080805460018160011615610100020316600290049050905090565b6000805460018116600081146103aa57600181146103de57610446565b601f6002830416806103b857fe5b6001816021036101000a0360018203915060028202848219161793508385555050610446565b82600052600282046020600020816020811461042d57601f6001840316602060018503048301925082546001826020036101000a03818119169150818555600288039750878955505050610442565b81546000835560ff1981169050603e81178755505b5050505b50505056fea26469706673582212208ab3de9d786eee778b3657029c5515deaa6e5d0bd388633f3a9358ad785dbdb664736f6c63430007060033",
			"opcodes": "PUSH1 0x80 PUSH1 0x40 MSTORE PUSH1 0x40 MLOAD DUP1 PUSH1 0x40 ADD PUSH1 0x40 MSTORE DUP1 PUSH1 0x4 DUP2 MSTORE PUSH1 0x20 ADD PUSH32 0x6162636400000000000000000000000000000000000000000000000000000000 DUP2 MSTORE POP PUSH1 0x0 SWAP1 DUP1 MLOAD SWAP1 PUSH1 0x20 ADD SWAP1 PUSH2 0x4F SWAP3 SWAP2 SWAP1 PUSH2 0x62 JUMP JUMPDEST POP CALLVALUE DUP1 ISZERO PUSH2 0x5C JUMPI PUSH1 0x0 DUP1 REVERT JUMPDEST POP PUSH2 0x10D JUMP JUMPDEST DUP3 DUP1 SLOAD PUSH1 0x1 DUP2 PUSH1 0x1 AND ISZERO PUSH2 0x100 MUL SUB AND PUSH1 0x2 SWAP1 DIV SWAP1 PUSH1 0x0 MSTORE PUSH1 0x20 PUSH1 0x0 KECCAK256 SWAP1 PUSH1 0x1F ADD PUSH1 0x20 SWAP1 DIV DUP2 ADD SWAP3 DUP3 PUSH2 0x98 JUMPI PUSH1 0x0 DUP6 SSTORE PUSH2 0xDF JUMP JUMPDEST DUP3 PUSH1 0x1F LT PUSH2 0xB1 JUMPI DUP1 MLOAD PUSH1 0xFF NOT AND DUP4 DUP1 ADD OR DUP6 SSTORE PUSH2 0xDF JUMP JUMPDEST DUP3 DUP1 ADD PUSH1 0x1 ADD DUP6 SSTORE DUP3 ISZERO PUSH2 0xDF JUMPI SWAP2 DUP3 ADD JUMPDEST DUP3 DUP2 GT ISZERO PUSH2 0xDE JUMPI DUP3 MLOAD DUP3 SSTORE SWAP2 PUSH1 0x20 ADD SWAP2 SWAP1 PUSH1 0x1 ADD SWAP1 PUSH2 0xC3 JUMP JUMPDEST JUMPDEST POP SWAP1 POP PUSH2 0xEC SWAP2 SWAP1 PUSH2 0xF0 JUMP JUMPDEST POP SWAP1 JUMP JUMPDEST JUMPDEST DUP1 DUP3 GT ISZERO PUSH2 0x109 JUMPI PUSH1 0x0 DUP2 PUSH1 0x0 SWAP1 SSTORE POP PUSH1 0x1 ADD PUSH2 0xF1 JUMP JUMPDEST POP SWAP1 JUMP JUMPDEST PUSH2 0x481 DUP1 PUSH2 0x11C PUSH1 0x0 CODECOPY PUSH1 0x0 RETURN INVALID PUSH1 0x80 PUSH1 0x40 MSTORE CALLVALUE DUP1 ISZERO PUSH2 0x10 JUMPI PUSH1 0x0 DUP1 REVERT JUMPDEST POP PUSH1 0x4 CALLDATASIZE LT PUSH2 0x57 JUMPI PUSH1 0x0 CALLDATALOAD PUSH1 0xE0 SHR DUP1 PUSH4 0x317D5F3 EQ PUSH2 0x5C JUMPI DUP1 PUSH4 0xADD6EF2 EQ PUSH2 0x66 JUMPI DUP1 PUSH4 0x3A7D22BC EQ PUSH2 0xE9 JUMPI DUP1 PUSH4 0x56D88E27 EQ PUSH2 0x14C JUMPI DUP1 PUSH4 0x9A6FCBDD EQ PUSH2 0x16A JUMPI JUMPDEST PUSH1 0x0 DUP1 REVERT JUMPDEST PUSH2 0x64 PUSH2 0x174 JUMP JUMPDEST STOP JUMPDEST PUSH2 0x6E PUSH2 0x245 JUMP JUMPDEST PUSH1 0x40 MLOAD DUP1 DUP1 PUSH1 0x20 ADD DUP3 DUP2 SUB DUP3 MSTORE DUP4 DUP2 DUP2 MLOAD DUP2 MSTORE PUSH1 0x20 ADD SWAP2 POP DUP1 MLOAD SWAP1 PUSH1 0x20 ADD SWAP1 DUP1 DUP4 DUP4 PUSH1 0x0 JUMPDEST DUP4 DUP2 LT ISZERO PUSH2 0xAE JUMPI DUP1 DUP3 ADD MLOAD DUP2 DUP5 ADD MSTORE PUSH1 0x20 DUP2 ADD SWAP1 POP PUSH2 0x93 JUMP JUMPDEST POP POP POP POP SWAP1 POP SWAP1 DUP2 ADD SWAP1 PUSH1 0x1F AND DUP1 ISZERO PUSH2 0xDB JUMPI DUP1 DUP3 SUB DUP1 MLOAD PUSH1 0x1 DUP4 PUSH1 0x20 SUB PUSH2 0x100 EXP SUB NOT AND DUP2 MSTORE PUSH1 0x20 ADD SWAP2 POP JUMPDEST POP SWAP3 POP POP POP PUSH1 0x40 MLOAD DUP1 SWAP2 SUB SWAP1 RETURN JUMPDEST PUSH2 0x115 PUSH1 0x4 DUP1 CALLDATASIZE SUB PUSH1 0x20 DUP2 LT ISZERO PUSH2 0xFF JUMPI PUSH1 0x0 DUP1 REVERT JUMPDEST DUP2 ADD SWAP1 DUP1 DUP1 CALLDATALOAD SWAP1 PUSH1 0x20 ADD SWAP1 SWAP3 SWAP2 SWAP1 POP POP POP PUSH2 0x2E3 JUMP JUMPDEST PUSH1 0x40 MLOAD DUP1 DUP3 PUSH30 0xFFFFFFFFFFFFFFFFFFFFFFFFFFFFFFFFFFFFFFFFFFFFFFFFFFFFFFFFFFFF NOT AND DUP2 MSTORE PUSH1 0x20 ADD SWAP2 POP POP PUSH1 0x40 MLOAD DUP1 SWAP2 SUB SWAP1 RETURN JUMPDEST PUSH2 0x154 PUSH2 0x370 JUMP JUMPDEST PUSH1 0x40 MLOAD DUP1 DUP3 DUP2 MSTORE PUSH1 0x20 ADD SWAP2 POP POP PUSH1 0x40 MLOAD DUP1 SWAP2 SUB SWAP1 RETURN JUMPDEST PUSH2 0x172 PUSH2 0x38D JUMP JUMPDEST STOP JUMPDEST PUSH1 0x0 DUP1 DUP1 SLOAD PUSH1 0x3F DUP2 AND DUP1 PUSH1 0x3E DUP2 EQ PUSH2 0x1A6 JUMPI PUSH1 0x2 DUP4 ADD DUP5 SSTORE PUSH1 0x1 DUP4 AND PUSH2 0x198 JUMPI DUP2 SWAP3 POP JUMPDEST PUSH1 0x1 PUSH1 0x2 DUP5 DIV ADD SWAP4 POP PUSH2 0x1C0 JUMP JUMPDEST DUP4 PUSH1 0x0 MSTORE PUSH1 0x20 PUSH1 0x0 KECCAK256 PUSH1 0xFF NOT DUP5 AND DUP2 SSTORE PUSH1 0x41 DUP6 SSTORE PUSH1 0x20 SWAP5 POP POP JUMPDEST POP POP POP PUSH1 0x1 SWAP1 SUB DUP2 SLOAD PUSH1 0x1 AND ISZERO PUSH2 0x1E6 JUMPI SWAP1 PUSH1 0x0 MSTORE PUSH1 0x20 PUSH1 0x0 KECCAK256 SWAP1 PUSH1 0x20 SWAP2 DUP3 DUP3 DIV ADD SWAP2 SWAP1 MOD JUMPDEST PUSH32 0x6500000000000000000000000000000000000000000000000000000000000000 SWAP1 SWAP2 SWAP1 SWAP2 PUSH1 0x1F SUB PUSH2 0x100 EXP DUP2 SLOAD DUP2 PUSH1 0xFF MUL NOT AND SWAP1 PUSH32 0x100000000000000000000000000000000000000000000000000000000000000 DUP5 DIV MUL OR SWAP1 SSTORE POP JUMP JUMPDEST PUSH1 0x0 DUP1 SLOAD PUSH1 0x1 DUP2 PUSH1 0x1 AND ISZERO PUSH2 0x100 MUL SUB AND PUSH1 0x2 SWAP1 DIV DUP1 PUSH1 0x1F ADD PUSH1 0x20 DUP1 SWAP2 DIV MUL PUSH1 0x20 ADD PUSH1 0x40 MLOAD SWAP1 DUP2 ADD PUSH1 0x40 MSTORE DUP1 SWAP3 SWAP2 SWAP1 DUP2 DUP2 MSTORE PUSH1 0x20 ADD DUP3 DUP1 SLOAD PUSH1 0x1 DUP2 PUSH1 0x1 AND ISZERO PUSH2 0x100 MUL SUB AND PUSH1 0x2 SWAP1 DIV DUP1 ISZERO PUSH2 0x2DB JUMPI DUP1 PUSH1 0x1F LT PUSH2 0x2B0 JUMPI PUSH2 0x100 DUP1 DUP4 SLOAD DIV MUL DUP4 MSTORE SWAP2 PUSH1 0x20 ADD SWAP2 PUSH2 0x2DB JUMP JUMPDEST DUP3 ADD SWAP2 SWAP1 PUSH1 0x0 MSTORE PUSH1 0x20 PUSH1 0x0 KECCAK256 SWAP1 JUMPDEST DUP2 SLOAD DUP2 MSTORE SWAP1 PUSH1 0x1 ADD SWAP1 PUSH1 0x20 ADD DUP1 DUP4 GT PUSH2 0x2BE JUMPI DUP3 SWAP1 SUB PUSH1 0x1F AND DUP3 ADD SWAP2 JUMPDEST POP POP POP POP POP DUP2 JUMP JUMPDEST PUSH1 0x0 DUP1 DUP3 DUP2 SLOAD PUSH1 0x1 DUP2 PUSH1 0x1 AND ISZERO PUSH2 0x100 MUL SUB AND PUSH1 0x2 SWAP1 DIV DUP2 LT PUSH2 0x302 JUMPI INVALID JUMPDEST DUP2 SLOAD PUSH1 0x1 AND ISZERO PUSH2 0x321 JUMPI SWAP1 PUSH1 0x0 MSTORE PUSH1 0x20 PUSH1 0x0 KECCAK256 SWAP1 PUSH1 0x20 SWAP2 DUP3 DUP3 DIV ADD SWAP2 SWAP1 MOD JUMPDEST SWAP1 SLOAD SWAP1 BYTE PUSH32 0x100000000000000000000000000000000000000000000000000000000000000 MUL PUSH31 0xFFFFFFFFFFFFFFFFFFFFFFFFFFFFFFFFFFFFFFFFFFFFFFFFFFFFFFFFFFFFFF NOT AND SWAP1 POP SWAP2 SWAP1 POP JUMP JUMPDEST PUSH1 0x0 DUP1 DUP1 SLOAD PUSH1 0x1 DUP2 PUSH1 0x1 AND ISZERO PUSH2 0x100 MUL SUB AND PUSH1 0x2 SWAP1 DIV SWAP1 POP SWAP1 POP SWAP1 JUMP JUMPDEST PUSH1 0x0 DUP1 SLOAD PUSH1 0x1 DUP2 AND PUSH1 0x0 DUP2 EQ PUSH2 0x3AA JUMPI PUSH1 0x1 DUP2 EQ PUSH2 0x3DE JUMPI PUSH2 0x446 JUMP JUMPDEST PUSH1 0x1F PUSH1 0x2 DUP4 DIV AND DUP1 PUSH2 0x3B8 JUMPI INVALID JUMPDEST PUSH1 0x1 DUP2 PUSH1 0x21 SUB PUSH2 0x100 EXP SUB PUSH1 0x1 DUP3 SUB SWAP2 POP PUSH1 0x2 DUP3 MUL DUP5 DUP3 NOT AND OR SWAP4 POP DUP4 DUP6 SSTORE POP POP PUSH2 0x446 JUMP JUMPDEST DUP3 PUSH1 0x0 MSTORE PUSH1 0x2 DUP3 DIV PUSH1 0x20 PUSH1 0x0 KECCAK256 DUP2 PUSH1 0x20 DUP2 EQ PUSH2 0x42D JUMPI PUSH1 0x1F PUSH1 0x1 DUP5 SUB AND PUSH1 0x20 PUSH1 0x1 DUP6 SUB DIV DUP4 ADD SWAP3 POP DUP3 SLOAD PUSH1 0x1 DUP3 PUSH1 0x20 SUB PUSH2 0x100 EXP SUB DUP2 DUP2 NOT AND SWAP2 POP DUP2 DUP6 SSTORE PUSH1 0x2 DUP9 SUB SWAP8 POP DUP8 DUP10 SSTORE POP POP POP PUSH2 0x442 JUMP JUMPDEST DUP2 SLOAD PUSH1 0x0 DUP4 SSTORE PUSH1 0xFF NOT DUP2 AND SWAP1 POP PUSH1 0x3E DUP2 OR DUP8 SSTORE POP JUMPDEST POP POP POP JUMPDEST POP POP POP JUMP INVALID LOG2 PUSH5 0x6970667358 0x22 SLT KECCAK256 DUP11 0xB3 0xDE SWAP14 PUSH25 0x6EEE778B3657029C5515DEAA6E5D0BD388633F3A9358AD785D 0xBD 0xB6 PUSH5 0x736F6C6343 STOP SMOD MOD STOP CALLER "
		},
		"gasEstimates": {
			"creation": {
				"codeDepositCost": "230600",
				"executionCost": "infinite",
				"totalCost": "infinite"
			},
			"external": {
				"b2()": "infinite",
				"getElement(uint256)": "2934",
				"len()": "1105",
				"popElement()": "43705",
				"pushElement()": "62856"
			}
		},
		"methodIdentifiers": {
			"b2()": "0add6ef2",
			"getElement(uint256)": "3a7d22bc",
			"len()": "56d88e27",
			"popElement()": "9a6fcbdd",
			"pushElement()": "0317d5f3"
		}
	},
	"abi": [
		{
			"inputs": [],
			"name": "b2",
			"outputs": [
				{
					"internalType": "bytes",
					"name": "",
					"type": "bytes"
				}
			],
			"stateMutability": "view",
			"type": "function"
		},
		{
			"inputs": [
				{
					"internalType": "uint256",
					"name": "i",
					"type": "uint256"
				}
			],
			"name": "getElement",
			"outputs": [
				{
					"internalType": "bytes2",
					"name": "",
					"type": "bytes2"
				}
			],
			"stateMutability": "view",
			"type": "function"
		},
		{
			"inputs": [],
			"name": "len",
			"outputs": [
				{
					"internalType": "uint256",
					"name": "",
					"type": "uint256"
				}
			],
			"stateMutability": "view",
			"type": "function"
		},
		{
			"inputs": [],
			"name": "popElement",
			"outputs": [],
			"stateMutability": "nonpayable",
			"type": "function"
		},
		{
			"inputs": [],
			"name": "pushElement",
			"outputs": [],
			"stateMutability": "nonpayable",
			"type": "function"
		}
	]
}