{
	"data": {
		"bytecode": {
			"linkReferences": {},
			"object": "608060405234801561001057600080fd5b50610172806100206000396000f3fe608060405260043610610057576000357c0100000000000000000000000000000000000000000000000000000000900463ffffffff16806306661abd1461005c57806371e5ee5f14610087578063a92100cb146100d6575b600080fd5b34801561006857600080fd5b506100716100ed565b6040518082815260200191505060405180910390f35b34801561009357600080fd5b506100c0600480360360208110156100aa57600080fd5b81019080803590602001909291905050506100f3565b6040518082815260200191505060405180910390f35b3480156100e257600080fd5b506100eb61010d565b005b60035481565b60008160038110151561010257fe5b016000915090505481565b5b600354600060035460038110151561012257fe5b01819055506003600081548092919060010191905055506003805410151561010e5756fea165627a7a72305820c5162d6aab5d274a5d26c87efbbb03eeb20fbf3a2ac8fedb80f78c09a3a0ec940029",
			"opcodes": "PUSH1 0x80 PUSH1 0x40 MSTORE CALLVALUE DUP1 ISZERO PUSH2 0x10 JUMPI PUSH1 0x0 DUP1 REVERT JUMPDEST POP PUSH2 0x172 DUP1 PUSH2 0x20 PUSH1 0x0 CODECOPY PUSH1 0x0 RETURN INVALID PUSH1 0x80 PUSH1 0x40 MSTORE PUSH1 0x4 CALLDATASIZE LT PUSH2 0x57 JUMPI PUSH1 0x0 CALLDATALOAD PUSH29 0x100000000000000000000000000000000000000000000000000000000 SWAP1 DIV PUSH4 0xFFFFFFFF AND DUP1 PUSH4 0x6661ABD EQ PUSH2 0x5C JUMPI DUP1 PUSH4 0x71E5EE5F EQ PUSH2 0x87 JUMPI DUP1 PUSH4 0xA92100CB EQ PUSH2 0xD6 JUMPI JUMPDEST PUSH1 0x0 DUP1 REVERT JUMPDEST CALLVALUE DUP1 ISZERO PUSH2 0x68 JUMPI PUSH1 0x0 DUP1 REVERT JUMPDEST POP PUSH2 0x71 PUSH2 0xED JUMP JUMPDEST PUSH1 0x40 MLOAD DUP1 DUP3 DUP2 MSTORE PUSH1 0x20 ADD SWAP2 POP POP PUSH1 0x40 MLOAD DUP1 SWAP2 SUB SWAP1 RETURN JUMPDEST CALLVALUE DUP1 ISZERO PUSH2 0x93 JUMPI PUSH1 0x0 DUP1 REVERT JUMPDEST POP PUSH2 0xC0 PUSH1 0x4 DUP1 CALLDATASIZE SUB PUSH1 0x20 DUP2 LT ISZERO PUSH2 0xAA JUMPI PUSH1 0x0 DUP1 REVERT JUMPDEST DUP2 ADD SWAP1 DUP1 DUP1 CALLDATALOAD SWAP1 PUSH1 0x20 ADD SWAP1 SWAP3 SWAP2 SWAP1 POP POP POP PUSH2 0xF3 JUMP JUMPDEST PUSH1 0x40 MLOAD DUP1 DUP3 DUP2 MSTORE PUSH1 0x20 ADD SWAP2 POP POP PUSH1 0x40 MLOAD DUP1 SWAP2 SUB SWAP1 RETURN JUMPDEST CALLVALUE DUP1 ISZERO PUSH2 0xE2 JUMPI PUSH1 0x0 DUP1 REVERT JUMPDEST POP PUSH2 0xEB PUSH2 0x10D JUMP JUMPDEST STOP JUMPDEST PUSH1 0x3 SLOAD DUP2 JUMP JUMPDEST PUSH1 0x0 DUP2 PUSH1 0x3 DUP2 LT ISZERO ISZERO PUSH2 0x102 JUMPI INVALID JUMPDEST ADD PUSH1 0x0 SWAP2 POP SWAP1 POP SLOAD DUP2 JUMP JUMPDEST JUMPDEST PUSH1 0x3 SLOAD PUSH1 0x0 PUSH1 0x3 SLOAD PUSH1 0x3 DUP2 LT ISZERO ISZERO PUSH2 0x122 JUMPI INVALID JUMPDEST ADD DUP2 SWAP1 SSTORE POP PUSH1 0x3 PUSH1 0x0 DUP2 SLOAD DUP1 SWAP3 SWAP2 SWAP1 PUSH1 0x1 ADD SWAP2 SWAP1 POP SSTORE POP PUSH1 0x3 DUP1 SLOAD LT ISZERO ISZERO PUSH2 0x10E JUMPI JUMP INVALID LOG1 PUSH6 0x627A7A723058 KECCAK256 0xc5 AND 0x2d PUSH11 0xAB5D274A5D26C87EFBBB03 0xee 0xb2 0xf 0xbf GASPRICE 0x2a 0xc8 INVALID 0xdb DUP1 0xf7 DUP13 MULMOD LOG3 LOG0 0xec SWAP5 STOP 0x29 "
		},
		"gasEstimates": {
			"creation": {
				"codeDepositCost": "74000",
				"executionCost": "123",
				"totalCost": "74123"
			},
			"external": {
				"arr(uint256)": "546",
				"count()": "394",
				"loop()": "infinite"
			}
		},
		"methodIdentifiers": {
			"arr(uint256)": "71e5ee5f",
			"count()": "06661abd",
			"loop()": "a92100cb"
		}
	},
	"abi": [
		{
			"constant": true,
			"inputs": [],
			"name": "count",
			"outputs": [
				{
					"name": "",
					"type": "uint256"
				}
			],
			"payable": false,
			"stateMutability": "view",
			"type": "function"
		},
		{
			"constant": true,
			"inputs": [
				{
					"name": "",
					"type": "uint256"
				}
			],
			"name": "arr",
			"outputs": [
				{
					"name": "",
					"type": "uint256"
				}
			],
			"payable": false,
			"stateMutability": "view",
			"type": "function"
		},
		{
			"constant": false,
			"inputs": [],
			"name": "loop",
			"outputs": [],
			"payable": false,
			"stateMutability": "nonpayable",
			"type": "function"
		}
	]
}