{
	"data": {
		"bytecode": {
			"linkReferences": {},
			"object": "6080604052348015600e575f80fd5b50605f80601a5f395ff3fe608060405260043610601b575f3560e01c8063f7474d0014601f575b5f80fd5b60256027565b005b56fea2646970667358221220d52425f5d58df1109867ba83e0a0f98f0561fbf4ad089b34c741b183cdd1270364736f6c63430008150033",
			"opcodes": "PUSH1 0x80 PUSH1 0x40 MSTORE CALLVALUE DUP1 ISZERO PUSH1 0xE JUMPI PUSH0 DUP1 REVERT JUMPDEST POP PUSH1 0x5F DUP1 PUSH1 0x1A PUSH0 CODECOPY PUSH0 RETURN INVALID PUSH1 0x80 PUSH1 0x40 MSTORE PUSH1 0x4 CALLDATASIZE LT PUSH1 0x1B JUMPI PUSH0 CALLDATALOAD PUSH1 0xE0 SHR DUP1 PUSH4 0xF7474D00 EQ PUSH1 0x1F JUMPI JUMPDEST PUSH0 DUP1 REVERT JUMPDEST PUSH1 0x25 PUSH1 0x27 JUMP JUMPDEST STOP JUMPDEST JUMP INVALID LOG2 PUSH5 0x6970667358 0x22 SLT KECCAK256 0xD5 0x24 0x25 CREATE2 0xD5 DUP14 CALL LT SWAP9 PUSH8 0xBA83E0A0F98F0561 0xFB DELEGATECALL 0xAD ADDMOD SWAP12 CALLVALUE 0xC7 COINBASE 0xB1 DUP4 0xCD 0xD1 0x27 SUB PUSH5 0x736F6C6343 STOP ADDMOD ISZERO STOP CALLER "
		},
		"deployedBytecode": {
			"immutableReferences": {},
			"linkReferences": {},
			"object": "608060405260043610601b575f3560e01c8063f7474d0014601f575b5f80fd5b60256027565b005b56fea2646970667358221220d52425f5d58df1109867ba83e0a0f98f0561fbf4ad089b34c741b183cdd1270364736f6c63430008150033",
			"opcodes": "PUSH1 0x80 PUSH1 0x40 MSTORE PUSH1 0x4 CALLDATASIZE LT PUSH1 0x1B JUMPI PUSH0 CALLDATALOAD PUSH1 0xE0 SHR DUP1 PUSH4 0xF7474D00 EQ PUSH1 0x1F JUMPI JUMPDEST PUSH0 DUP1 REVERT JUMPDEST PUSH1 0x25 PUSH1 0x27 JUMP JUMPDEST STOP JUMPDEST JUMP INVALID LOG2 PUSH5 0x6970667358 0x22 SLT KECCAK256 0xD5 0x24 0x25 CREATE2 0xD5 DUP14 CALL LT SWAP9 PUSH8 0xBA83E0A0F98F0561 0xFB DELEGATECALL 0xAD ADDMOD SWAP12 CALLVALUE 0xC7 COINBASE 0xB1 DUP4 0xCD 0xD1 0x27 SUB PUSH5 0x736F6C6343 STOP ADDMOD ISZERO STOP CALLER "
		},
		"gasEstimates": {
			"creation": {
				"codeDepositCost": "19000",
				"executionCost": "67",
				"totalCost": "19067"
			},
			"external": {
				"payEther()": "97"
			}
		},
		"methodIdentifiers": {
			"payEther()": "f7474d00"
		}
	},
	"abi": [
		{
			"inputs": [],
			"name": "payEther",
			"outputs": [],
			"stateMutability": "payable",
			"type": "function"
		}
	]
}