{
	"data": {
		"bytecode": {
			"linkReferences": {},
			"object": "608060405260016000806101000a81548160ff02191690831515021790555034801561002a57600080fd5b506101408061003a6000396000f3fe608060405234801561001057600080fd5b50600436106100365760003560e01c80633fa4f2451461003b5780639943d6691461005b575b600080fd5b61004361009f565b60405180821515815260200191505060405180910390f35b6100876004803603602081101561007157600080fd5b81019080803590602001909291905050506100b0565b60405180821515815260200191505060405180910390f35b60008054906101000a900460ff1681565b600060648213156100da5760016000806101000a81548160ff0219169083151502179055506100f5565b60008060006101000a81548160ff0219169083151502179055505b60008054906101000a900460ff16905091905056fea2646970667358221220e6c6efa02b8a12fcc6a300f4babaf91b2a82cbe8fe79ee78d312dc1050873d1764736f6c63430007060033",
			"opcodes": "PUSH1 0x80 PUSH1 0x40 MSTORE PUSH1 0x1 PUSH1 0x0 DUP1 PUSH2 0x100 EXP DUP2 SLOAD DUP2 PUSH1 0xFF MUL NOT AND SWAP1 DUP4 ISZERO ISZERO MUL OR SWAP1 SSTORE POP CALLVALUE DUP1 ISZERO PUSH2 0x2A JUMPI PUSH1 0x0 DUP1 REVERT JUMPDEST POP PUSH2 0x140 DUP1 PUSH2 0x3A PUSH1 0x0 CODECOPY PUSH1 0x0 RETURN INVALID PUSH1 0x80 PUSH1 0x40 MSTORE CALLVALUE DUP1 ISZERO PUSH2 0x10 JUMPI PUSH1 0x0 DUP1 REVERT JUMPDEST POP PUSH1 0x4 CALLDATASIZE LT PUSH2 0x36 JUMPI PUSH1 0x0 CALLDATALOAD PUSH1 0xE0 SHR DUP1 PUSH4 0x3FA4F245 EQ PUSH2 0x3B JUMPI DUP1 PUSH4 0x9943D669 EQ PUSH2 0x5B JUMPI JUMPDEST PUSH1 0x0 DUP1 REVERT JUMPDEST PUSH2 0x43 PUSH2 0x9F JUMP JUMPDEST PUSH1 0x40 MLOAD DUP1 DUP3 ISZERO ISZERO DUP2 MSTORE PUSH1 0x20 ADD SWAP2 POP POP PUSH1 0x40 MLOAD DUP1 SWAP2 SUB SWAP1 RETURN JUMPDEST PUSH2 0x87 PUSH1 0x4 DUP1 CALLDATASIZE SUB PUSH1 0x20 DUP2 LT ISZERO PUSH2 0x71 JUMPI PUSH1 0x0 DUP1 REVERT JUMPDEST DUP2 ADD SWAP1 DUP1 DUP1 CALLDATALOAD SWAP1 PUSH1 0x20 ADD SWAP1 SWAP3 SWAP2 SWAP1 POP POP POP PUSH2 0xB0 JUMP JUMPDEST PUSH1 0x40 MLOAD DUP1 DUP3 ISZERO ISZERO DUP2 MSTORE PUSH1 0x20 ADD SWAP2 POP POP PUSH1 0x40 MLOAD DUP1 SWAP2 SUB SWAP1 RETURN JUMPDEST PUSH1 0x0 DUP1 SLOAD SWAP1 PUSH2 0x100 EXP SWAP1 DIV PUSH1 0xFF AND DUP2 JUMP JUMPDEST PUSH1 0x0 PUSH1 0x64 DUP3 SGT ISZERO PUSH2 0xDA JUMPI PUSH1 0x1 PUSH1 0x0 DUP1 PUSH2 0x100 EXP DUP2 SLOAD DUP2 PUSH1 0xFF MUL NOT AND SWAP1 DUP4 ISZERO ISZERO MUL OR SWAP1 SSTORE POP PUSH2 0xF5 JUMP JUMPDEST PUSH1 0x0 DUP1 PUSH1 0x0 PUSH2 0x100 EXP DUP2 SLOAD DUP2 PUSH1 0xFF MUL NOT AND SWAP1 DUP4 ISZERO ISZERO MUL OR SWAP1 SSTORE POP JUMPDEST PUSH1 0x0 DUP1 SLOAD SWAP1 PUSH2 0x100 EXP SWAP1 DIV PUSH1 0xFF AND SWAP1 POP SWAP2 SWAP1 POP JUMP INVALID LOG2 PUSH5 0x6970667358 0x22 SLT KECCAK256 0xE6 0xC6 0xEF LOG0 0x2B DUP11 SLT 0xFC 0xC6 LOG3 STOP DELEGATECALL 0xBA 0xBA 0xF9 SHL 0x2A DUP3 0xCB 0xE8 INVALID PUSH26 0xEE78D312DC1050873D1764736F6C634300070600330000000000 "
		},
		"gasEstimates": {
			"creation": {
				"codeDepositCost": "64000",
				"executionCost": "20978",
				"totalCost": "84978"
			},
			"external": {
				"check(int256)": "22043",
				"value()": "1022"
			}
		},
		"methodIdentifiers": {
			"check(int256)": "9943d669",
			"value()": "3fa4f245"
		}
	},
	"abi": [
		{
			"inputs": [
				{
					"internalType": "int256",
					"name": "a",
					"type": "int256"
				}
			],
			"name": "check",
			"outputs": [
				{
					"internalType": "bool",
					"name": "",
					"type": "bool"
				}
			],
			"stateMutability": "nonpayable",
			"type": "function"
		},
		{
			"inputs": [],
			"name": "value",
			"outputs": [
				{
					"internalType": "bool",
					"name": "",
					"type": "bool"
				}
			],
			"stateMutability": "view",
			"type": "function"
		}
	]
}